:060000000A128A11FC2F18
:10085600F300F201731C332C7008F1007108F207E3
:100866000310F00D0310F30CF308031D2D2C720872
:100876000800831603130F178F160F168316031718
:100886008801890183120313850186018701880186
:1008960089013830831603138500033086008030C3
:1008A60087008801033089000800F401F501701CF7
:1008B600622C7208F4070318F50A7308F50701306D
:1008C6000310F20DF30DFF3E031D632C01300310E0
:1008D600F10CF00CFF3E031D6A2C71087004031D19
:1008E6005A2C7508F101F1077408F001F0070800A9
:1008F600F400F40803190800831203138617F501A0
:10090600F60171087602031D8A2C70087502031819
:100916009C2C0330F3009730F200F20B902CF30B73
:10092600902C952C0130F5070318F60A0030F607CF
:10093600842C831203138613F501F60171087602DF
:10094600031DA72C700875020318B92C0330F30099
:100956009730F200F20BAD2CF30BAD2CB22C01301C
:10096600F5070318F60A0030F607A12C0130F40249
:100976007C2C83120313A101F71FC82CF609F70973
:10098600F60A0319F70AA101A10AF91FD32CF809DF
:10099600F909F80A0319F90A0130FA007A08A106DA
:1009A600A201A3017708760403190A2DA001A00A63
:1009B600F71BE92C01300310F60DF70DFF3E031D62
:1009C600DE2C0130FA007A08A007DB2C0130031078
:1009D600A20DA30DFF3E031DEA2C77087902031D25
:1009E600F62C76087802031CFF2C7608F8027708A6
:1009F600031CF903F902221401300310F70CF60C5C
:100A0600FF3E031D002D0130A002031DE92C210825
:100A16000319122DA209A309A20A0319A30A23087E
:100A2600F701F7072208F601F607080007308312D8
:100A3600031392000C309D002608F0002708F100F1
:100A46000030F11BFF30F200F3000030F7000130F8
:100A5600F600E830F5004830F4000A128A116F26D5
:100A66000A128A117008FF3E83160313920019308A
:100A7600F6000030F7001208013EF00000300318BF
:100A86000130F100831203132908F301F307280844
:100A9600F201F2070A128A1158240A128A11710801
:100AA600F901F9077008F801F8070A128A11BC243F
:100AB6000A128A117708FD01FD077608FC01FC077A
:100AC6000430F6000030F7007D08F901F9077C08CC
:100AD600F801F8070A128A11BC240A128A1176084C
:100AE600831203139B007C080339FB0004300310B8
:100AF600FB0DFF3E031D7A2D1D08CF397B049D009B
:100B0600080007308312031392000C309700260862
:100B1600F0002708F1000030F11BFF30F200F3006F
:100B26000030F7000130F600E830F5004830F400F8
:100B36000A128A116F260A128A117008FF3E83165E
:100B4600031392001930F6000030F7001208013E38
:100B5600F000003003180130F10083120313290856
:100B6600F301F3072808F201F2070A128A11582442
:100B76000A128A117108F901F9077008F801F807D5
:100B86000A128A11BC240A128A117708FD01FD0790
:100B96007608FC01FC070430F6000030F7007D08FB
:100BA600F901F9077C08F801F8070A128A11BC2432
:100BB6000A128A1176088312031395007C080339FA
:100BC600FB0004300310FB0DFF3E031DE52D170847
:100BD600CF397B049700080083120313AE00503010
:100BE600AB002B08AD00AE1F092E06168612FF308D
:100BF600AB002B08F0002E080A128A112B240A12C9
:100C06008A1183120313AC002C08192E2E08803A81
:100C16007F3E031C112E06128616162EAE08031DE5
:100C26001A2E061286122E08AB002B08AF002F08CC
:100C36002D020318222E2D08AB002B08AF00E8303A
:100C4600A6000330A7002F08AB00AC012B08A800B4
:100C56002C08A9000A128A1119250A128A11831270
:100C66000313AA1F472E06158611FF30AB002B086B
:100C7600F0002A080A128A112B240A128A118312FA
:100C86000313AC002C08572E2A08803A7F3E031C1B
:100C96004F2E06118615542EAA08031D582E06112E
:100CA60086112A08AB002B08AF002F082D02031867
:100CB600602E2D08AB002B08AF00E830A6000330ED
:100CC600A7002F08AB00AC012B08A8002C08A90030
:100CD6000A128A118425080083120313A101F31F47
:100CE600812EF009F109F209F309F00A0319F10A54
:100CF6000319F20A0319F30AA101A10AF71F922E9A
:100D0600F409F509F609F709F40A0319F50A0319AE
:100D1600F60A0319F70A0130F8007808A106003030
:100D2600A5000030A4000030A3000030A200730824
:100D36007204710470040319E72EA001A00AF31BC4
:100D4600B22E0130F8000310F00DF10DF20DF30D87
:100D5600F80BA62E0130F8007808A007A22E013065
:100D6600F8000310A20DA30DA40DA50DF80BB42ECB
:100D760073087702031DC92E72087602031DC92E59
:100D860071087502031DC92E70087402031CDA2E41
:100D96007008F4027108031C710FF5027208031C37
:100DA600720FF6027308031C730FF7022214013048
:100DB6000310F30CF20CF10CF00CFF3E031DDB2EBE
:100DC6000130A002031DB22E21080319F52EA20937
:100DD600A309A409A509A20A0319A30A0319A40AC7
:100DE6000319A50A2508F3002408F2002308F100D8
:100DF6002208F00008000A128A113C240A128A11FD
:100E06003230F0000030F10002300A128A117B24E1
:100E16000A128A118312031306180D2F3230F000BE
:100E26000030F10001300A128A117B240A128A115D
:100E360083120313851D051A222F851E862FCE3099
:100E4600B0003008AA00CE300A128A11EF250A1225
:100E56008A11033083120313B2000830B1007830D0
:100E6600B000B00B342FB10B342FB20B342F8312DA
:100E76000313AA0100300A128A11EF250A128A11F9
:100E8600063083120313B2001330B100B130B00044
:100E9600B00B4B2FB10B4B2FB20B4B2F522FE23017
:100EA60083120313B0003008AA001E300A128A11FA
:100EB600EF250A128A11063083120313B20013308B
:100EC600B100B130B000B00B662FB10B662FB20B7C
:100ED600662F6D2F83120313AA0100300A128A119E
:100EE600EF250A128A11063083120313B20013305B
:100EF600B100B130B000B00B7E2FB10B7E2FB20B1C
:100F06007E2F852F1B2F851E09188B2F891CEF2FEF
:100F1600CE30B0003008AA00CE300A128A11EF2572
:100F26000A128A11033083120313B2000830B1008B
:100F36007830B000B00B9D2FB10B9D2FB20B9D2FBB
:100F460083120313AA0100300A128A11EF250A122E
:100F56008A11063083120313B2001330B100B13088
:100F6600B000B00BB42FB10BB42FB20BB42FBB2F04
:100F76001E3083120313B0003008AA00E2300A12B2
:100F86008A11EF250A128A11063083120313B20062
:100F96001330B100B130B000B00BCF2FB10BCF2F53
:100FA600B20BCF2FD62F83120313AA0100300A12D9
:100FB6008A11EF250A128A11063083120313B20032
:100FC6001330B100B130B000B00BE72FB10BE72FF3
:100FD600B20BE72FEE2F1B2F323083120313B00014
:100FE6003008AA0032300A128A11EF250A128A1135
:0A0FF6001B2F83010A128A11FE2E40
:02400E00E4E0EC
:00000001FF
