:060000000A128A11FC2F18
:10001000F400F40803190800831203138617F5018E
:10002000F60171087602031D17287008750203187F
:1000300029280330F3009730F200F20B1D28F30B50
:100040001D2822280130F5070318F60A0030F607AC
:100050001128831203138613F501F6017108760245
:10006000031D342870087502031846280330F30076
:100070009730F200F20B3A28F30B3A283F28013070
:10008000F5070318F60A0030F6072E280130F402AF
:10009000092883120313AE005030AB002B08AD00CB
:1000A000AE1F632806168612FF30AB002B08F00047
:1000B0002E080A128A15E9240A128A1183120313E0
:1000C000AC002C0873282E08803A7F3E031C6B2856
:1000D000061286167028AE08031D742806128612B2
:1000E0002E08AB002B08AF002F082D0203187C2828
:1000F0002D08AB002B08AF00E830A6000330A700A6
:100100002F08AB00AC012B08A8002C08A9000A128C
:100110008A152A270A128A1183120313AA1FA128FB
:1001200006158611FF30AB002B08F0002A080A12D2
:100130008A15E9240A128A1183120313AC002C08D1
:10014000B1282A08803A7F3E031CA928061186158B
:10015000AE28AA08031DB228061186112A08AB0092
:100160002B08AF002F082D020318BA282D08AB006A
:100170002B08AF00E830A6000330A7002F08AB0023
:10018000AC012B08A8002C08A9000A128A15952793
:10019000080083120313AD010A302D020318DD2875
:1001A0002D08233E8400831380010130A000200825
:1001B000AD070A302D02031CD028AD017A08831246
:1001C0000313A000A1012008F0002108F100790824
:1001D000F301F3077808F201F2070A128A15812564
:1001E0000A128A11700883120313A2002D08233EFD
:1001F00084002208831380000130A0002008AD078E
:100200007A08A000A1012008F0002108F100790877
:10021000F301F3077808F201F2070A128A15EE25B6
:100220000A128A117108F901F9077008F801F80734
:1002300079087804031DDE287B0883120313A000CD
:100240002008AE00AE08031908002E08FF3E233E2A
:1002500084000A3083130002031835292E08FF3E5C
:10026000233E84000008303E3E29831203132E08EB
:10027000FF3E233E840083130008373EA000200881
:10028000F00001300A128A15FA240A128A1101308C
:1002900083120313AE02222983120313A101F31F59
:1002A0005E29F009F109F209F309F00A0319F10ACC
:1002B0000319F20A0319F30AA101A10AF71F6F2912
:1002C000F409F509F609F709F40A0319F50A0319FF
:1002D000F60A0319F70A0130F8007808A106003081
:1002E000A5000030A4000030A3000030A200730875
:1002F0007204710470040319C429A001A00AF31B3D
:100300008F290130F8000310F00DF10DF20DF30DFF
:10031000F80B83290130F8007808A0077F29013005
:10032000F8000310A20DA30DA40DA50DF80B912943
:1003300073087702031DA62972087602031DA629F9
:1003400071087502031DA62970087402031CB729E1
:100350007008F4027108031C710FF5027208031C87
:10036000720FF6027308031C730FF7022214013098
:100370000310F30CF20CF10CF00CFF3E031DB82936
:100380000130A002031D8F2921080319D229A209D7
:10039000A309A409A509A20A0319A30A0319A40A17
:1003A0000319A50A2508F3002408F2002308F10028
:1003B0002208F000080083120313D401D301CB01FB
:1003C0000030D2000030D1000030D0000030CF002B
:1003D0000A128A1514250A128A110A128A15C926C8
:1003E0000A128A113230F0000030F10002300A1295
:1003F0008A1108200A128A11F001F00A00300A124C
:100400008A15FA240A128A11063083120313B100E6
:100410003030B000B00B0A2AB10B0A2A00002E308F
:100420000A128A1553250A128A11F301F30A0230BF
:100430000A128A15B5250A128A1125300A128A1560
:1004400053250A128A117E2AF001F00A00300A129E
:100450008A15FA240A128A11063083120313B10096
:100460003030B000B00B322AB10B322A000013300A
:100470000A128A1553250A128A11F301F30A02306F
:100480000A128A15B5250A128A111C300A128A1519
:1004900053250A128A110B3083120313B20026303F
:1004A000B1006630B000B00B532AB10B532AB20B27
:1004B000532A5A2AF001F00A00300A128A15FA2447
:1004C0000A128A11063083120313B1003030B000D3
:1004D000B00B682AB10B682A00000A300A128A158C
:1004E00053250A128A113230F0000030F100013039
:1004F0000A128A1108200A128A11C82B83120313C8
:10050000061C242A86187E2AF001F00A00300A12FE
:100510008A15FA240A128A11063083120313B100D5
:100520003030B000B00B922AB10B922A000001309B
:100530000A128A1553250A128A11F301F30A0230AE
:100540000A128A15B5250A128A1137300A128A153D
:1005500053250A128A113230F0000030F1000130C8
:100560000A128A1108200A128A1101308312031319
:10057000CF07003003180130D007003003180130D6
:10058000D107003003180130D20700305202031D9A
:10059000D32A00305102031DD32AC3305002031D59
:1005A000D32A51304F02031CDE2A0030D200003023
:1005B000D1000030D0000030CF00202B003052029C
:1005C000031DEC2A00305102031DEC2A2730500293
:1005D000031DEC2A11304F0203180E2B003052027B
:1005E000031DFC2A00305102031DFC2A1330500267
:1005F000031DFC2A89304F0203181F2B00305202C2
:10060000031D0C2B00305102031D0C2B0730500230
:10061000031D0C2BD1304F02031C102B8613202BF3
:1006200000305202031D1E2B00305102031D1E2BF1
:1006300003305002031D1E2BE9304F0203188617AA
:10064000851D051A332B851A0918332B8918332B6E
:100650005030B0003008AA0050300A128A114920E8
:100660000A128A11B52A851D051E462B851A0918FE
:10067000462B8918462B5030B0003008AA0028308D
:100680000A128A1149200A128A11B52A851D051AF3
:10069000592B851A091C592B8918592B2830B00061
:1006A0003008AA0050300A128A1149200A128A1111
:1006B000B52A851D051E6C2B851E09186C2B891803
:1006C0006C2B5030B0003008AA001E300A128A117C
:1006D00049200A128A11B52A851D051A7F2B851E0D
:1006E000091C7F2B89187F2B1E30B0003008AA0010
:1006F00050300A128A1149200A128A11B52A851926
:10070000051E922B851E0918922B8918922B5030AA
:10071000B0003008AA000A300A128A1149200A12D1
:100720008A11B52A851D051AA52B851E091CA52B26
:10073000891CA52B0A30B0003008AA0050300A12DC
:100740008A1149200A128A11B52A8519051AB82B6F
:10075000851E0918B82B8918B82B5030B000300806
:10076000AA0000300A128A1149200A128A11B52AF9
:10077000851D051AB52A851E0918B52A891CB52AB2
:10078000AA0150300A128A1149200A128A11B52A88
:1007900083120313051E851ED12B0918D12B463059
:1007A000F42B051A851EDC2B0918DC2B4630B00013
:1007B0003008AA002830F82B051E851EE32B091CE3
:1007C000E32B2830F42B051A851AEE2B0918EE2B93
:1007D0004630B0003008AA001E30F82B051E851ADE
:1007E000FD2B091CFD2B1E30B0003008AA0046303E
:1007F0000A128A1149200A128A11831203138918D6
:1008000085197C2C1E30B0003008AA001E300A1258
:100810008A1149200A128A1183120313C801C901DF
:1008200000304902C830031948020318312C8519D9
:10083000312C0330B1009730B000B00B1D2CB10B40
:100840001D2C222C013083120313C8070318C90A78
:100850000030C90700304902C83003194802031CA0
:10086000172C85197C2CAA0100300A128A11492004
:100870000A128A11033083120313B2000830B10048
:100880007830B000B00B422CB10B422CB20B422C92
:1008900083120313851A762C5230B0003008D3002F
:1008A000E230B0003008AA001E300A128A11492036
:1008B0000A128A1183120313891C5A2C091C5E2CFC
:1008C000AA0100300A128A1149200A128A11033043
:1008D00083120313B2000830B1007830B000B00BBF
:1008E0006F2CB10B6F2CB20B6F2C7C2C53308312FE
:1008F0000313B0003008D30083120313851DDA2CD4
:100900001E30B0003008AA001E300A128A11492099
:100910000A128A11033083120313B2000830B100A7
:100920007830B000B00B922CB10B922CB20B922C01
:1009300083120313AA0100300A128A1149200A12F5
:100940008A11033083120313B2000830B1007830EB
:10095000B000B00BA92CB10BA92CB20BA92C4C30B8
:1009600083120313B0003008D3001E30B0003008EB
:10097000AA00E2300A128A1149200A128A1183124F
:100980000313851DBF2C051EC32CAA0100300A12BB
:100990008A1149200A128A11033083120313B2000C
:1009A0000830B1007830B000B00BD42CB10BD42C8F
:1009B000B20BD42C83120313851D051A242D851E1A
:1009C0000918242D8918242DAA0100300A128A1131
:1009D00049200A128A11033083120313B20008302F
:1009E000B1007830B000B00BF32CB10BF32CB20B8C
:1009F000F32C423083120313B0003008D300E230EE
:100A0000B0003008AA001E300A128A1149200A12CA
:100A10008A1183120313891C092D091C0D2DAA01AB
:100A200000300A128A1149200A128A1103308312F7
:100A30000313B2000830B1007830B000B00B1E2DA7
:100A4000B10B1E2DB20B1E2D831203138519051E2B
:100A5000662D851A091C662D891C662DAA01003099
:100A60000A128A1149200A128A112C30F000013032
:100A7000F10003300A128A1108200A128A11831227
:100A800003135408B0003008CA000630B000300824
:100A9000F30001300A128A15B5250A128A11831251
:100AA00003134A08B000B1013008F8003108F9001A
:100AB0000A30B2003208FA000230B3003308FB00FB
:100AC0000A128A11C9200A128A11A62E8312031350
:100AD00053080319C82B5308423A031D952DCB0127
:100AE000CB0A5308B0003008CD005408013EB000D6
:100AF0003008F30002300A128A15B5250A128A114D
:100B0000831203135308B0003008F00001300A12BA
:100B10008A15FA240A128A11013083120313D402AF
:100B20005408343E840083136C2E4B080319782E2E
:100B30005308B0003008CE004C30B0003008F00050
:100B40000330F1000030F20040300A128A152C26E2
:100B50000A128A1171087004031DB02D5330172E2C
:100B60004C3083120313B0003008F0000330F10062
:100B70000030F2004C300A128A152C260A128A1113
:100B8000710870040319162E4C3083120313B00041
:100B90003008F0000330F1000030F20050300A124B
:100BA0008A152C260A128A11710870040319002E66
:100BB0004C3083120313B0003008F0000330F10012
:100BC0000030F20044300A128A152C260A128A11CB
:100BD000710870040319162E4C3083120313B000F1
:100BE0003008F0000330F1000030F20048300A1203
:100BF0008A152C260A128A1171087004031D022E10
:100C00005230172E4C3083120313B0003008F0001E
:100C10000330F1000030F20054300A128A152C26FD
:100C20000A128A1171087004031D202E42308312AB
:100C30000313B0005408343E84003008831380004E
:100C4000831203135408013EB0003008F300023051
:100C50000A128A15B5250A128A1183120313540841
:100C6000343E840083130008B0003008F0000130E7
:100C70000A128A15FA240A128A11831203135408DD
:100C8000023EB0003008F30002300A128A15B52582
:100C90000A128A11203083120313B0003008F000CA
:100CA00001300A128A15FA240A128A1183120313D8
:100CB0005408343E840083130008423A031D712E09
:100CC0005408343E84000008B0003008CD000130E4
:100CD000D4025408343E84000008B0003008CC0030
:100CE000762ECB010130B0003008D407D301A42EFA
:100CF000CB08031DA42E5308B0005408343E8400D2
:100D00003008831380005408013EB0003008F3001F
:100D100002300A128A15B5250A128A1183120313AA
:100D20005408343E840083130008B0003008F000FB
:100D300001300A128A15FA240A128A11013083122C
:100D40000313B0003008D407D301C82B8312031358
:100D50000618A62ED4013230F0000030F100023027
:100D60000A128A1108200A128A110B308312031307
:100D7000B2002630B1006630B000B00BBD2EB10B12
:100D8000BD2EB20BBD2EC42E83120313051E851E6D
:100D9000CD2E0918CD2E4630F02E051A851ED82EE0
:100DA0000918D82E4630B0003008AA002830F42E9A
:100DB000051E851EDF2E091CDF2E2830F02E051A99
:100DC000851AEA2E0918EA2E4630B0003008AA002B
:100DD0001E30F42E051E851AF92E091CF92E1E3020
:100DE000B0003008AA0046300A128A1149200A12BF
:100DF0008A11831203134A0854020318E22F85193B
:100E0000032F891CE22F5408343E8400831300080A
:100E10004C3A031D622F1E30B0003008AA001E306D
:100E20000A128A1149200A128A110330831203130D
:100E3000B2000830B1007830B000B00B1D2FB10BFC
:100E40001D2FB20B1D2F83120313AA0100300A12AB
:100E50008A1149200A128A11033083120313B20047
:100E60000830B1007830B000B00B342FB10B342F04
:100E7000B20B342F1E3083120313B0003008AA00C7
:100E8000E2300A128A1149200A128A1183120313CE
:100E9000851D462F051E4A2FAA0100300A128A110D
:100EA00049200A128A11033083120313B20008305A
:100EB000B1007830B000B00B5B2FB10B5B2FB20BE1
:100EC0005B2FDC2F831203135408343E84008313FA
:100ED0000008523A031DC32F1E30B0003008AA008C
:100EE0001E300A128A1149200A128A110330831215
:100EF0000313B2000830B1007830B000B00B7E2F81
:100F0000B10B7E2FB20B7E2F83120313AA01003088
:100F10000A128A1149200A128A110330831203131C
:100F2000B2000830B1007830B000B00B952FB10B93
:100F3000952FB20B952FE23083120313B0003008C7
:100F4000AA001E300A128A1149200A128A1183123D
:100F50000313891CA72F091CAB2FAA0100300A120A
:100F60008A1149200A128A11033083120313B20036
:100F70000830B1007830B000B00BBC2FB10BBC2FE3
:100F8000B20BBC2FDC2F831203135408343E8400B1
:100F900083130008533A031DDC2F1E30B0003008C5
:100FA000AA001E300A128A1149200A128A118312DD
:100FB0000313851D8918D72F013083120313B00046
:100FC0003008D4078519051EC42E851A091CC42EA5
:100FD000891CC42EAA0100300A128A1149200A1263
:100FE0008A113230F0000030F1000A300A128A1102
:100FF00008200A128A11A62E83010A128A11DB29FF
:1010000008308A000408840A820700344C346934AA
:101010006E3465342034203420342034003450348D
:101020006134743468343A34203420342034003449
:10103000203420344D3461347A3465342034203403
:10104000003453346F346C34763469346E3467341E
:101050002E3400345334573432343A344C346934F7
:101060006E34653400345334573431343A344D34AB
:1010700061347A346534003446346F346C346C3403
:101080006F3477346534723400344C3442344C3429
:101090000034523442344C340034533442344C34EF
:1010A00000344C344234523400344C3442345334DF
:0A10B000003453344234533400344A
:1019D200F300F201731CF12C7008F1007108F20798
:1019E2000310F00D0310F30CF308031DEB2C720827
:1019F2000800F200721C012D831203130617042D36
:101A0200831203130613700888000915082D092D87
:101A12008312031309110D2D0E2D1A30F100F10B53
:101A2200102D00000800831603130F178F160F16D0
:101A32008316031788018901831203138501860126
:101A4200870188018901383083160313850003302A
:101A52008600803087008801033089000800F40185
:101A6200F501701C3A2D7208F4070318F50A730881
:101A7200F50701300310F20DF30DFF3E031D3B2D60
:101A820001300310F10CF00CFF3E031D422D7108D2
:101A92007004031D322D7508F101F1077408F0017D
:101AA200F0070800F400740884000A128A15002066
:101AB2000A128A15F30020307302031C080074080E
:101AC20084000A128A1500200A128A15F3007F3058
:101AD200730203180800740884000A128A15002091
:101AE2000A128A15F3007308F00001300A128A15EF
:101AF200FA240A128A150130F3007308F407542DF0
:101B0200710870040319AE2DF501F50AF11B952D2C
:101B120001300310F00DF10DFF3E031D8A2D01303F
:101B2200F4007408F507872D71087302031D9B2DBD
:101B320070087202031CA32D7008F2027108031CC4
:101B4200F303F30201300310F10CF00CFF3E031D0E
:101B5200A42D0130F502031D952D7308F101F10743
:101B62007208F001F0070800F500DF2D73087F3ED0
:101B7200F4007408F00000300A128A15FA240800F2
:101B82007308BF3EF4007408F00000300A128A1590
:101B9200FA2408007308933EF4007408F000003041
:101BA2000A128A15FA2408007308D33EF400740856
:101BB200F00000300A128A15FA2408007508013A6A
:101BC2000319B72D033A0319C12D013A0319CB2D7D
:101BD200073A0319D52DED2D0800F501F60171081C
:101BE20070040319252EF701F70AF11B042E0130A8
:101BF2000310F00DF10DFF3E031DF92D0130F4002D
:101C02007408F707F62D01300310F50DF60DFF3EAF
:101C1200031D052E71087302031D112E7008720236
:101C2200031C1A2E7008F2027108031CF303F3025C
:101C3200751401300310F10CF00CFF3E031D1B2E36
:101C42000130F702031D042E7608F101F107750831
:101C5200F001F0070800F5000130F1020030031C2A
:101C6200F203F202FF307206031D392EFF307106B5
:101C72000319692E7008840083130008F3007508A5
:101C820084000A128A1500200A128A1573060319A3
:101C9200602E700884000008F300F401F309F409CF
:101CA200F30A0319F40A750884000A128A1500203F
:101CB2007307F00074080318740AF1000800013079
:101CC200F3007308F5070130F3007308F0072D2EB7
:101CD200F001F101080083120313A101F71F782E0E
:101CE200F609F709F60A0319F70AA101A10AF91F71
:101CF200832EF809F909F80A0319F90A0130FA00E2
:101D02007A08A106A201A301770876040319BA2E64
:101D1200A001A00AF71B992E01300310F60DF70D52
:101D2200FF3E031D8E2E0130FA007A08A0078B2E8B
:101D320001300310A20DA30DFF3E031D9A2E77085A
:101D42007902031DA62E76087802031CAF2E7608B0
:101D5200F8027708031CF903F90222140130031078
:101D6200F70CF60CFF3E031DB02E0130A002031D3E
:101D7200992E21080319C22EA209A309A20A031946
:101D8200A30A2308F701F7072208F601F60708005D
:101D92003430F400F130F300F30BCD2EF40BCD2EE2
:101DA200D22E3030F3007308F00000300A128A1588
:101DB200FA240A128A153030F3007308F00000305A
:101DC2000A128A15FA240A128A153030F3007308AF
:101DD200F00000300A128A15FA240A128A153830E5
:101DE200F3007308F00000300A128A15FA240A126E
:101DF2008A150C30F3007308F00000300A128A15BD
:101E0200FA240A128A15F001F00A00300A128A1521
:101E1200FA240A128A150630F3007308F000003023
:101E22000A128A15FA240A128A150230F30073087C
:101E3200F00000300A128A15FA240A128A150630B6
:101E4200F4003030F300F30B242FF40B242F0000A6
:101E5200080007308312031392000C309D002608FD
:101E6200F0002708F1000030F11BFF30F200F30010
:101E72000030F7000130F600E830F5004830F40099
:101E82000A128A114C210A128A157008FF3E831623
:101E9200031392001930F6000030F7001208013ED9
:101EA200F000003003180130F100831203132908F7
:101EB200F301F3072808F201F2070A128A15302506
:101EC2000A128A157108F901F9077008F801F80772
:101ED2000A128A156C260A128A157708FD01FD0777
:101EE2007608FC01FC070430F6000030F7007D089C
:101EF200F901F9077C08F801F8070A128A156C261D
:101F02000A128A157608831203139B007C08033990
:101F1200FB0004300310FB0DFF3E031D8B2F1D0839
:101F2200CF397B049D00080007308312031392000F
:101F32000C3097002608F0002708F1000030F11B52
:101F4200FF30F200F3000030F7000130F600E83015
:101F5200F5004830F4000A128A114C210A128A153F
:101F62007008FF3E8316031392001930F60000300A
:101F7200F7001208013EF000003003180130F100B2
:101F8200831203132908F301F3072808F201F20769
:101F92000A128A1530250A128A157108F901F90701
:101FA2007008F801F8070A128A156C260A128A15B7
:101FB2007708FD01FD077608FC01FC070430F600F6
:101FC2000030F7007D08F901F9077C08F801F807ED
:101FD2000A128A156C260A128A15760883120313CE
:101FE20095007C080339FB0004300310FB0DFF3E13
:0E1FF200031DF62F1708CF397B049700080057
:02400E00E4E0EC
:00000001FF
