:060000000A128A11422CD5
:1006B200F00070088312031395000800F000700820
:1006C2008312031388000800F000700883120313DA
:1006D2009B00080064008001840A040603190034A8
:1006E20004066C2BC030F70000300A128A1117265C
:1006F2000A128A110800F7010314F70D00300A12DA
:100702008A1117260A128A110800F00083120313B5
:100712000C1E8C2B8D2B872B700899000800F00083
:100722007018942B982B8312031309159B2B831299
:10073200031309110800F0007018A02BA42B8312D8
:1007420003130617A72B8312031306130800831241
:100752000313DF005F08F70001300A128A1117261F
:100762000A128A110800F10071080A128A118623FE
:100772000A128A110A128A11C1230A128A11080066
:1007820083120313981CC62BC72BC92B18121816D9
:100792008C1ECC2BCD2BC92B1A080800F100720835
:1007A2000A128A1159230A128A1171080A128A112D
:1007B20065230A128A110800F10071080A128A11CF
:1007C20086230A128A1172080A128A1186230A12D1
:1007D2008A1108007E088A007F088200EB230A1231
:1007E2008A118000840A04087D0603190034FF0A76
:1007F2000319FE0AEF2B831603178711031000302B
:1008020003180130831603139A0018153330990028
:1008120083120313981718168316031398161812C7
:1008220008004F34743468346534723420340A3426
:1008320053345734733420344C346F3477340034A7
:100842005034613473347334653464342134003485
:100852008312031307141A30F500F830F400F40B76
:10086200302CF50B302C64008312031307101A305E
:10087200F500F830F400F40B3C2CF50B3C2C640032
:10088200080083132030840048300A128A116B2337
:100892000A128A115F30FD000430FE001230FF00A0
:1008A200483084000A128A11EF230A128A11830146
:1008B2000A128A11792D662C0330F5009730F40064
:1008C200F40B612CF50B612C662C0130F602003022
:1008D200031CF703F702FF307706031D722CFF306B
:1008E2007606031D752C762C5D2C08006530831668
:1008F2000313920083120313921012140310003098
:100902000318013095001215971317139712171237
:1009120097151715971017109D121D129D151D156D
:100922009D101D100800831203139F171F138316B7
:100932000317081488100811881108128812081366
:100942008813091089100911891109128912831655
:1009520003139F121F129F17831203131F10080005
:10096200F800CB2C8312031386173230F6000030C6
:10097200F7000A128A115C240A128A1183120313E5
:1009820086133230F6000030F7000A128A115C2416
:100992000A128A110130F8027808FF3A031DD22C9C
:1009A200D32CB32C080001300A128A1190230A12A8
:1009B2008A112730F900F530F800F80BDE2CF90B1C
:1009C200DE2C3830F70000300A128A1117260A127C
:1009D2008A110630F70000300A128A1117260A120D
:1009E2008A110C30F70000300A128A1117260A12F7
:1009F2008A110A128A117C230A128A110800FE0047
:100A0200FE1F082D83137E188317000808000408B0
:100A1200FE0005308A007E08820700342034433409
:100A22007934743472346F346E3420340A3420349E
:100A32002034543465346334683420342034003430
:100A42002034203420345034533432340A34443481
:100A52006534743465346334743465346434003416
:100A6200203420345034533432340A3443346F3413
:100A72006E346E346534633474342134003420347B
:100A8200203453344B34503453340A342034203419
:100A920044346F346E34653421340034203450349D
:100AA20072346534733473340A3420345334543416
:100AB20041345234543400342034203444346534C4
:100AC2006D346F340A342034203453344B34503470
:100AD2005334003443346F346E346E3465346334CB
:100AE20074340A34203420345034533432340034D1
:100AF200831603130F178F160F16031000300318F7
:100B020001308312031386000310003003180130F2
:100B120087000310003003180130880003100030F2
:100B2200031801308900FF30831603138500033058
:100B32008600B830870003100030031801308800A7
:100B4200033089000A128A11FC230A128A110A123E
:100B52008A1194240A128A110A128A1177240A121B
:100B62008A110A128A11D4240A128A110A128A11CB
:100B72007C230A128A1101300A128A11DA250A121A
:100B82008A1102300A128A11B1240A128A11D03053
:100B9200F6000730F7000A128A115C240A128A1141
:100BA2000A128A1143260A128A11D12D0A128A11B7
:100BB200002883120313E0000B2E60080A128A1128
:100BC20009250A128A110A3A0319E82DE92DF42D92
:100BD20060080A128A1109250A128A110D3A031DA8
:100BE200F32DF42DFA2D0A128A1173230A128A1197
:100BF200052E60080A128A1109250A128A110A12A0
:100C02008A11A8230A128A110130F8007808831287
:100C12000313E00760080A128A1109250A128A11D1
:100C22000038031D152E162EDE2D0800F60076085C
:100C32000A128A119C230A128A1177080A128A114F
:100C42005F230A128A1100300A128A1190230A12B3
:100C52008A110630F5003030F400F40B2E2EF50B1D
:100C62002E2E640001300A128A1190230A128A1170
:100C72000330F5009730F400F40B3D2EF50B3D2EBA
:100C8200422E0800031000300318013083120313B0
:100C9200E4000310003003180130E1002830E300C3
:100CA2000A128A117C230A128A114F300A128A11FF
:100CB200DA250A128A11E830F6000330F7000A1228
:100CC2008A115C240A128A110A128A1129240A1230
:100CD2008A11F430F6000130F7000A128A115C24FE
:100CE2000A128A110A128A117C230A128A115D30B1
:100CF2000A128A11DA250A128A111C300A128A1182
:100D0200B4230A128A11003A0319882E892E7E2EE4
:100D12000A128A117C230A128A1113300A128A11CA
:100D2200DA250A128A11D030F6000730F7000A12CB
:100D32008A115C240A128A110A128A117C230A126D
:100D42008A1141300A128A11DA250A128A110330F5
:100D52000A128A11B4230A128A11013A0319B22E15
:100D6200B32EA82E0A128A117C230A128A1123306A
:100D72000A128A11DA250A128A11CF2F0A300A12B0
:100D82008A11B4230A128A11003A0319C92ECA2EF3
:100D9200EB2E08300A128A11B4230A128A11003A81
:100DA2000319D42ED52EEB2E0B300A128A11B4233E
:100DB2000A128A11003A0319DF2EE02EEB2E0930B7
:100DC2000A128A11B4230A128A110038031DEA2E6C
:100DD200EB2EEF2E831203138617F22E83120313C8
:100DE200861313300A128A11B4230A128A1183124B
:100DF2000313E10010300A128A11B4230A128A1175
:100E020083120313E40011300A128A11B4230A1266
:100E12008A1183120313E200643062020318122F54
:100E2200132F2E2F643064020318182F192F1E2F30
:100E32000612861206158611692F9D306402031C64
:100E4200232F242F292F0612861606118611692FA9
:100E52000612861606158611692F9D306202031C42
:100E6200332F342F4F2F643064020318392F3A2F57
:100E72003F2F0612861206118615692F9D306402D5
:100E8200031C442F452F4A2F06168612061186117F
:100E9200692F0616861206118615692F64306402C0
:100EA2000318542F552F5A2F06168612061586112F
:100EB200692F9D306402031C5F2F602F652F06127D
:100EC200861606118615692F0616861606158615CC
:100ED2004B30610203186E2F6F2F7A2F6308FF3A8F
:100EE2000319742F752F882F0130F9007908E30751
:100EF200882FB5306102031C7F2F802F882F0B3083
:100F02006302031C852F862F882F0130E3026308BA
:100F1200F20063080A128A11CF230A128A110D30D5
:100F22000A128A11B4230A128A110038031D9A2F59
:100F32009B2FA52FF2010314F20D1D300A128A1104
:100F4200DD230A128A11B02F03100030031801307A
:100F5200F2001D300A128A11DD230A128A110F30A3
:100F62000A128A11B4230A128A110038031DBA2FF9
:100F7200BB2FC42FC830F2001E300A128A11DD23A3
:100F82000A128A11CF2F0310003003180130F20029
:100F92001E300A128A11DD230A128A110E300A1239
:100FA2008A11B4230A128A11013A0319D92FDA2FAE
:100FB200BF2E0E300A128A11B4230A128A11003A85
:100FC2000319E42FE52FDA2F0A128A117C230A1261
:100FD2008A1132300A128A11DA250A128A11023073
:100FE2000A128A11B1240A128A11D030F60007308F
:0E0FF200F7000A128A115C240A128A11080004
:02400E00E42CA0
:00000001FF
