:100000000A128A11CA2C00308A000408840A820766
:100010000034203443347934743472346F346E34A1
:1000200020340A3420342034543465346334683442
:10003000203420340034433461346C34203444346C
:100040006F346E3465340A344C3469346E3465343C
:10005000203446346F346C340034203420344D3432
:1000600043343434303441340A344C3469346E34DB
:100070006534203446346F346C34003420342034FA
:100080005334573431340A3474346F342034733475
:0A00900074346134723474340034A7
:1009940083010A128A11AB2EF0007008831203132C
:1009A40095000800F0007008831203139B000800F0
:1009B400F00070088312031388000800F101031487
:1009C400F10D00300A128A119E250A128A110800BC
:1009D400C030F5007508F10000300A128A119E2516
:1009E4000A128A110800F0007018F92CFD2C8312E9
:1009F40003130915002D8312031309110800F000D5
:100A04007018052D092D8312031306170C2D83125C
:100A1400031306130800F6007608F5007508F100C4
:100A240001300A128A119E250A128A110800F20066
:100A340071080A128A11CE240A128A1172080A1243
:100A44008A11D4240A128A1108006530831603130C
:100A54009200831203139210121495011215971326
:100A640017139712171297151715971017109D1231
:100A74001D129D151D159D101D1008004A2D0330D3
:100A8400F3009730F200F20B452DF30B452D4A2D60
:100A94000130F0020030031CF103F102FF30710653
:100AA400031D562DFF307006031D592D5A2D412D5F
:100AB4005B2D0800831203139F171F13831603175C
:100AC4000814881008118811081288120813881352
:100AD4000910891009118911091289128316031347
:100AE4009F121F129F17831203131F100800F40094
:100AF400942D8312031386173230F0000030F10076
:100B04000A128A1140250A128A11831203138613CA
:100B14003230F0000030F1000A128A1140250A1226
:100B24008A11942D0130F4027408FF3A031D9B2DA1
:100B34009C2D7B2D9D2D0800F40074080A128A1147
:100B440001250A128A1171080A128A11DA240A127A
:100B54008A1100300A128A11F5240A128A11063009
:100B6400F3003030F200F20BB52DF30BB52D640019
:100B740001300A128A11F5240A128A110330F30093
:100B84009730F200F20BC42DF30BC42DC92D0800CD
:100B940001300A128A11F5240A128A112730F6004C
:100BA400F530F500F50BD42DF60BD42D3830F500C7
:100BB4007508F10000300A128A119E250A128A1162
:100BC4000630F5007508F10000300A128A119E25DE
:100BD4000A128A110C30F5007508F10000300A126F
:100BE4008A119E250A128A110A128A11E0240A1215
:100BF4008A110800F8002F2E780884000A128A113E
:100C040003200A128A110A3A0319092E0A2E172EF2
:100C1400780884000A128A1103200A128A110D3AF4
:100C2400031D152E162E1D2E172E0A128A11EA24C4
:100C34000A128A112A2E780884000A128A110320C3
:100C44000A128A110A128A110D250A128A112A2EF1
:100C54000130F7007708F8072F2E780884000A126D
:100C64008A1103200A128A110038031D3A2E3B2EE2
:100C7400FE2D3C2E08008312031387160A30F00061
:100C84000030F1000A128A1140250A128A118312D7
:100C940003138712E830F0000330F1000A128A11BE
:100CA40040250A128A1183120313061186150612AF
:100CB40086164B30F4007408F1004B300A128A1186
:100CC40019250A128A116430F0000030F1000A126A
:100CD4008A1140250A128A113930F4007408F1008F
:100CE40039300A128A1119250A128A115830F00073
:100CF4001B30F1000A128A1140250A128A11822E31
:100D040083120313891C872E882E822E892E353058
:100D1400F4007408F10035300A128A1119250A12F8
:100D24008A11942E83120313851E992E9A2E942EC3
:100D34009B2E0A30F0000030F1000A128A1140257F
:100D44000A128A11831203130611861106128612DF
:100D54000800FA010314FA0D831603130F178F16F4
:100D64000F16831203138601870188018901FF305E
:100D740083160313850003308600983087008801AA
:100D8400033089000A128A115C250A128A110A1298
:100D94008A1127250A128A110A128A11CA250A12EF
:100DA4008A110A128A11E0240A128A1101300A12E5
:100DB4008A11FC250A128A1102300A128A11792535
:100DC4000A128A11D030F0000730F1000A128A1199
:100DD40040250A128A110A128A11E0240A128A1181
:100DE40036300A128A11FC250A128A11F92E83124E
:100DF40003130618FE2EFF2EF92E002F0A128A1155
:100E04003D260A128A110A128A11E0240A128A1152
:100E140013300A128A11FC250A128A11DC30F00000
:100E24000530F1000A128A1140250A128A110A12A9
:100E34008A1121270A128A110A128A1100280A1219
:100E44008A11E0240A128A1125300A128A11FC251B
:100E54000A128A11831203130615861106128616C6
:100E6400332F83120313051A382F392F4C2F851E65
:100E74003C2F3D2F4C2F0918402F412F4C2F55301C
:100E8400F9007908F10055300A128A1119250A125D
:100E94008A11332F051E4F2F502F632F851E532F7A
:100EA400542F632F0918572F582F632F5530F900EB
:100EB4007908F10050300A128A1119250A128A1190
:100EC400332F051A662F672F7A2F851E6A2F6B2FF3
:100ED4007A2F091C6E2F6F2F7A2F5030F900790862
:100EE400F10055300A128A1119250A128A11332F7A
:100EF40085197D2F7E2F912F051E812F822F912FF3
:100F0400851A852F862F912F5330F9007908F10027
:100F140041300A128A1119250A128A11332F851AAF
:100F2400942F952FA82F091C982F992FA82F891833
:100F34009C2F9D2FA82F4130F9007908F1005330E0
:100F44000A128A1119250A128A11332F851DAB2F13
:100F5400AC2FBB2F051EAF2FB02FBB2F5030F90085
:100F64007908F10014300A128A1119250A128A111B
:100F7400332F091CBE2FBF2FCE2F891CC22FC32F86
:100F8400CE2F1430F9007908F10050300A128A117A
:100F940019250A128A11332F851DD12FD22FE12F43
:100FA400051AD52FD62FE12F5030F9007908F1001A
:100FB40000300A128A1119250A128A11332F0918CE
:100FC400E42FE52F332F891CE82FE92F332F03104B
:100FD400003003180130F10050300A128A1119252B
:100FE4000A128A11332F332F332F332F332F332FFA
:0C0FF400332F332F332F332F332F0800FF
:02400E00E42CA0
:00000001FF
