:060000000A128A15062910
:10000C00653083160313920083120313921012149B
:10001C0003100030031801309500121597131713B5
:10002C009712171297151715971017109D121D126E
:10003C009D151D159D101D1008000A168A111526F8
:10004C000A128A11B13083120313E4001730E50051
:10005C000A128A1564220A128A11E830F20003305F
:10006C00F3000A128A1520210A128A119B280A16FB
:10007C008A1115260A128A11A23083120313E40086
:10008C001730E5000A128A1564220A128A1103102D
:10009C00003003180130F60083120313061857289A
:1000AC00582859286C280A30F2000030F3000A1244
:1000BC008A1520210A128A110130F5007508F607FD
:1000CC00C8307602031C6B286C2852280A168A1139
:1000DC0015260A128A11693083120313E4001630B4
:1000EC00E5000A128A1564220A128A1103100030E4
:1000FC0003180130F600831203130618862887288C
:10010C0088289B280A30F2000030F3000A128A1566
:10011C0020210A128A110130F5007508F607C83043
:10012C007602031C9A289B28812883120313061835
:10013C00A028A1283D28061CA428A528A1280A1619
:10014C008A1115260A128A11A63083120313E400B1
:10015C001530E5000A128A1564220A128A11E83059
:10016C00F2000330F3000A128A1520210A128A11B8
:10017C000A168A11C1250A128A11412941300A1620
:10018C008A1199260A128A1183120313851DCF280E
:10019C00D028D72858300A128A1500200A128A1142
:1001AC00DD2820300A128A1500200A128A114230EA
:1001BC000A168A1199260A128A1183120313051E34
:1001CC00E828E928F02858300A128A1500200A126B
:1001DC008A11F62820300A128A1500200A128A1178
:1001EC0043300A168A1199260A128A1183120313B4
:1001FC00851E01290229092958300A128A15002066
:10020C000A128A110F2920300A128A1500200A12AC
:10021C008A1144300A168A1199260A128A118312FD
:10022C000313091C1A291B29222958300A128A1572
:10023C0000200A128A11282920300A128A1500205F
:10024C000A128A1145300A168A1199260A128A1145
:10025C0083120313891C332934293B2958300A1281
:10026C008A1500200A128A11412920300A128A1597
:10027C0000200A128A118312031386184629472973
:10028C00C428861C4A294B2947290A168A11152687
:10029C000A128A11573083120313E4008030E500F0
:1002AC000A128A1564220A128A1102300A128A155D
:1002BC007A210A128A11F430F2000130F3000A128A
:1002CC008A1520210A128A11080003100030031825
:1002DC00013083120313EB000310003003180130BC
:1002EC00E6000310003003180130E8000A168A11EA
:1002FC0015260A128A11CD3083120313E40016302E
:10030C00E5000A128A1564220A128A11E830F200FA
:10031C000330F3000A128A1520210A128A110A16D8
:10032C008A1115260A128A11653083120313E40010
:10033C001530E5000A128A1564220A128A110A166F
:10034C008A11C1250A128A11E53083120313E400C5
:10035C001530E5000A128A1564220A128A118312DA
:10036C0003131F14A02A0030EC000030ED00031022
:10037C00003003180130E8000A128A15F5210A1220
:10038C008A11831203136C0883136307EC006D0846
:10039C0003186D0A6407ED000130F5007508E807D5
:1003AC000A306802031CDB29DC29C2296D08E00134
:1003BC00E0076C08DF01DF070A30E1000030E200E3
:1003CC000A128A15AA220A128A11831383120313A2
:1003DC006008ED01ED075F08EC01EC076D08E0012A
:1003EC00E0076C08DF01DF07E830E1000330E200D2
:1003FC000A128A15AA220A128A1183138312031372
:10040C005F08E7006D08E001E0076C08DF01DF071B
:10041C00E830E1000330E2000A128A152B220A129E
:10042C008A118313831203136008EA01EA075F0839
:10043C00E901E9076A08E001E0076908DF01DF0765
:10044C006430E1000030E2000A128A152B220A12F5
:10045C008A118313831203135F08EB006A08E0010F
:10046C00E0076908DF01DF076430E1000030E200DB
:10047C000A128A15AA220A128A11831383120313F1
:10048C006008EA01EA075F08E901E9076B08F50073
:10049C00F6017508DF007608E0000A30E100003054
:1004AC00E2000A128A15F5220A128A1183138312AA
:1004BC0003135F08E6006B08F500F6017508DF0012
:1004CC007608E0000A30E1000030E2000A128A15DA
:1004DC0051230A128A118313831203135F08EB0052
:1004EC0004300A168A1199260A128A1183120313F0
:1004FC006708303E0A128A1500200A128A118312EC
:10050C0003136908303E0A128A1500200A128A1158
:10051C00831203136B08303E0A128A1500200A124C
:10052C008A11831203136608303E0A128A150020C2
:10053C000A128A11831203130618A52AA62AB929AE
:10054C00061CA92AAA2AA62A1F100A168A111526E1
:10055C000A128A11573083120313E4008030E5002D
:10056C000A128A1564220A128A1102300A128A159A
:10057C007A210A128A11F430F2000130F3000A12C7
:10058C008A1520210A128A110800592B0A168A1181
:10059C0015260A128A11F03083120313E400173067
:1005AC00E5000A128A1564220A128A11031000301F
:1005BC0003180130F600831203130618E62AE72A03
:1005CC00E82AFB2A0A30F2000030F3000A128A15DE
:1005DC0020210A128A110130F5007508F607C8307F
:1005EC007602031CFA2AFB2AE12A0A168A1115261E
:1005FC000A128A113C3083120313E4001730E50011
:10060C000A128A1564220A128A1103100030031888
:10061C000130F600831203130618152B162B172B1B
:10062C002A2B0A30F2000030F3000A128A1520211E
:10063C000A128A110130F5007508F607C8307602E7
:10064C00031C292B2A2B102B0A168A1115260A1289
:10065C008A11843083120313E4001730E5000A1268
:10066C008A1564220A128A11031000300318013013
:10067C00F600831203130618442B452B462BCB2A6A
:10068C000A30F2000030F3000A128A1520210A12F7
:10069C008A110130F5007508F607C8307602031C84
:1006AC00582B592B3F2B8312031306185E2B5F2BF1
:1006BC00CC2A061C622B632B5F2B0A168A1115267B
:1006CC000A128A113A3083120313E4001630E50043
:1006DC000A128A1564220A128A11282C0615861110
:1006EC0006128616051A7B2B7C2B8D2B851E7F2BD9
:1006FC00802B8D2B0918832B842B8D2BC830F2006B
:10070C00C8300A168A11E8260A128A11282C051EEE
:10071C00902B912BA22B851E942B952BA22B091879
:10072C00982B992BA22BC830F20078300A168A111C
:10073C00E8260A128A11282C051AA52BA62BB72BF2
:10074C00851EA92BAA2BB72B091CAD2BAE2BB72BB7
:10075C007830F200C8300A168A11E8260A128A117B
:10076C00282C8519BA2BBB2BCC2B051EBE2BBF2BD3
:10077C00CC2B851AC22BC32BCC2BB430F2005030AF
:10078C000A168A11E8260A128A11282C851ACF2BF0
:10079C00D02BE12B091CD32BD42BE12B8918D72B75
:1007AC00D82BE12B5030F200B4300A168A11E8260F
:1007BC000A128A11282C851DE42BE52BF22B051E21
:1007CC00E82BE92BF22B8C30F20037300A168A1109
:1007DC00E8260A128A11282C091CF52BF62B032C5F
:1007EC00891CF92BFA2B032C3730F2008C300A16AB
:1007FC008A11E8260A128A11282C851D062C072C32
:10080C00142C051A0A2C0B2C142C9630F2000030E8
:10081C000A168A11E8260A128A11282C0918172C94
:10082C00182C282C891C1B2C1C2C282C0310003059
:10083C0003180130F20096300A168A11E8260A12C3
:10084C008A11282C8312031386182D2C2E2C742B12
:10085C000611861106128612861C352C362C322C6B
:10086C000A168A1115260A128A1184308312031370
:10087C00E4001530E5000A128A1564220A128A1166
:10088C000800EE010314EE0D831603130F178F16D9
:10089C000F16031000300318013083120313860067
:1008AC0003100030031801308700031000300318C8
:1008BC000130880003100030031801308900FF302C
:1008CC0083160313850003308600B83087000310AD
:1008DC000030031801308800033089000A128A1591
:1008EC008F200A128A110A128A153B210A128A11C8
:1008FC000A128A1106200A128A110A128A159D21DF
:10090C000A128A110A168A1115260A128A11413006
:10091C0083120313E4000830E5000A128A156422DE
:10092C000A128A1102300A128A157A210A128A11C5
:10093C00D030F2000730F3000A128A1520210A1277
:10094C008A110A128A15C3230A128A110A168A11ED
:10095C00C1250A128A11943083120313E400153056
:10096C00E5000A128A1564220A128A110A168A11E3
:10097C00B8250A128A11C62DAF30E4001530E500F7
:10098C000A128A1564220A128A118312031386181A
:10099C00D02CD12CE52D861CD42CD52CD12C0A1284
:1009AC008A1515250A128A110A128A1100260A12B2
:1009BC008A110A128A116B210A128A110A128A15DB
:1009CC00F9250A128A110A128A156C240A128A1144
:1009DC000A128A1123200A128A110A128A15EF268A
:1009EC000A128A110A128A11CB220A128A11E52DD7
:1009FC009D30E4001530E5000A128A1564220A12B3
:100A0C008A118312031386180C2D0D2DE52D861CCF
:100A1C00102D112D0D2D0A128A1515250A128A1169
:100A2C00E52DD330E4001530E5000A128A15642256
:100A3C000A128A11831203138618252D262DE52DF3
:100A4C00861C292D2A2D262D0A128A1100260A12FF
:100A5C008A11E52DCA30E4001530E5000A128A151A
:100A6C0064220A128A118312031386183E2D3F2D1D
:100A7C00E52D861C422D432D3F2D0A128A116B2128
:100A8C000A128A11E52D2830E4001630E5000A120E
:100A9C008A1564220A128A11831203138618572DA1
:100AAC00582DE52D861C5B2D5C2D582D0A128A15B0
:100ABC00F9250A128A11E52DEE30E4001530E50017
:100ACC000A128A1564220A128A11831203138618D9
:100ADC00702D712DE52D861C742D752D712D0A121E
:100AEC008A156C240A128A11E52D1F30E400163089
:100AFC00E5000A128A1564220A128A118312031362
:100B0C008618892D8A2DE52D861C8D2D8E2D8A2DEE
:100B1C000A128A1123200A128A11E52D3130E400C1
:100B2C001630E5000A128A1564220A128A11831201
:100B3C0003138618A22DA32DE52D861CA62DA72DFB
:100B4C00A32D0A128A15EF260A128A11E52DF73009
:100B5C00E4001530E5000A128A1564220A128A1183
:100B6C00831203138618BB2DBC2DE52D861CBF2DBF
:100B7C00C02DBC2D0A128A11CB220A128A11E52D26
:100B8C00831203136E08013A0319C22C033A03199A
:100B9C00FE2C013A0319172D073A0319302D013A8F
:100BAC000319492D033A0319622D013A03197B2DC0
:100BBC000F3A0319942D013A0319AD2DE52D83122B
:100BCC0003130618EA2DEB2DAC2C0130F700770837
:100BDC00EE070A306E02031CF42DF52DF82DEE01F4
:100BEC000314EE0D061CFB2DFC2DF82DAC2C0A125B
:100BFC008A110028632E0A168A1115260A128A11E8
:100C0C00753083120313E4001730E5000A128A15BD
:100C1C0064220A128A110310003003180130831267
:100C2C000313E60006181B2E1C2E1D2E322E0A3026
:100C3C00F2000030F3000A128A1520210A128A11E0
:100C4C000130F500750883120313E607C8306602FD
:100C5C00031C312E322E182E0A168A1115260A1252
:100C6C008A11693083120313E4001630E5000A126E
:100C7C008A1564220A128A110310003003180130FD
:100C8C0083120313E60006184C2E4D2E4E2E002E0A
:100C9C000A30F2000030F3000A128A1520210A12E1
:100CAC008A110130F500750883120313E607C8306A
:100CBC006602031C622E632E492E83120313061840
:100CCC00682E692E012E061C6C2E6D2E692E0A16AE
:100CDC008A1115260A128A11753083120313E40047
:100CEC001630E5000A128A1564220A128A11831240
:100CFC000313061686122830E70067080A168A11B5
:100D0C0070250A128A110F30F2000030F3000A121B
:100D1C008A1520210A128A110130F50075088312F8
:100D2C000313E7076708FF3A031D9D2E9E2E832EA3
:100D3C00293067020318A32EA42EA52EB92E6708FE
:100D4C000A168A1170250A128A110F30F20000302F
:100D5C00F3000A128A1520210A128A11013083121B
:100D6C000313E7029E2E0A168A1115260A128A11FF
:100D7C00A63083120313E4001630E5000A128A151C
:100D8C0064220A128A118312031306128616283063
:100D9C00E70067080A168A1170250A128A110F30AB
:100DAC00F2000030F3000A128A1520210A128A116F
:100DBC000130F500750883120313E7076708FF3A43
:100DCC00031DE92EEA2ECF2E293067020318EF2ED1
:100DDC00F02EF12E052F67080A168A1170250A12BB
:100DEC008A110F30F2000030F3000A128A1520210C
:100DFC000A128A11013083120313E702EA2E003023
:100E0C000A168A1170250A128A110A168A111526D9
:100E1C000A128A11933083120313E4001730E50091
:100E2C000A128A1564220A128A11831203130612FB
:100E3C00861201300A128A157A210A128A110A16B0
:100E4C008A1115260A128A115D3083120313E400ED
:100E5C001630E5000A128A1564220A128A118312CE
:100E6C000313061586112830E70067080A168A1145
:100E7C0076250A128A110F30F2000030F3000A12A4
:100E8C008A1520210A128A110130F5007508831287
:100E9C000313E7076708FF3A031D552F562F3B2F07
:100EAC002930670203185B2F5C2F5D2F712F6708A9
:100EBC000A168A1176250A128A110F30F2000030B8
:100ECC00F3000A128A1520210A128A1101308312AA
:100EDC000313E702562F0A168A1115260A128A11D5
:100EEC00583083120313E4001730E5000A128A15F8
:100EFC0064220A128A1183120313061186152830F4
:100F0C00E70067080A168A1176250A128A110F3033
:100F1C00F2000030F3000A128A1520210A128A11FD
:100F2C000130F500750883120313E7076708FF3AD1
:100F3C00031DA12FA22F872F293067020318A72F7B
:100F4C00A82FA92FBD2F67080A168A1176250A1219
:100F5C008A110F30F2000030F3000A128A1520219A
:100F6C000A128A11013083120313E702A22F0030F8
:100F7C000A168A1176250A128A110A168A11152662
:100F8C000A128A11E03083120313E4001730E500D3
:100F9C000A128A1564220A128A118312031306118B
:100FAC008611E830F2000330F3000A128A15202172
:100FBC000A128A110A168A1115260A128A1157303A
:100FCC0083120313E4008030E5000A128A156422B0
:100FDC000A128A1102300A128A157A210A128A110F
:100FEC00F430F2000130F3000A128A1520210A12A3
:100FFC008A11080083120313E3006308F400013024
:10100C000A128A15C9210A128A1508007E088A005C
:10101C007F0882000C200A128A158000840A0408BA
:10102C007D0603190034FF0A0319FE0A10285434F4
:10103C0065347334743469346E34673420340A3450
:10104C004C3449344D34493454342034733477346B
:10105C0000344C344534443431342B3442347534FC
:10106C007A340A3420342034743469346D34653461
:10107C002F34733400342034433479347434723460
:10108C006F346E3420340A342034203454346534B4
:10109C00633468342034203400345434653473346D
:1010AC00743469346E34673420340A3453347734EE
:1010BC0069347434633468346534733400340D34F7
:1010CC000A340A34543465347334743469346E34E9
:1010DC006734203455344134523454342E342E3445
:1010EC002E340D340A3400340D340A340A3454349A
:1010FC00653473347434203443346F346D34703449
:10110C006C3465347434653464342E340D340A34E0
:10111C0000348316031787110310003003180130B5
:10112C00831603139A001815333099008312031396
:10113C0098171816831603139816181208004F34B4
:10114C00743468346534723420340A34533457346C
:10115C00733420344C346F3477340034503461346D
:10116C007334733465346434213400345034723441
:10117C00653473347334203465346E3474346534AC
:10118C007234203474346F342034653478346934D8
:10119C0074342E340D340A340A340034503472341E
:1011AC00653473347334203461346E3479342034C0
:1011BC006B3465347934203474346F3420347434A3
:1011CC006534733474342E340D340A340034831281
:1011DC00031307141A30F100F830F000F00BF42868
:1011EC00F10BF42864008312031307101A30F1007A
:1011FC00F830F000F00B0029F10B00296400080016
:10120C0083132030840048300A168A117C250A1278
:10121C008A155F30FD000830FE00A530FF00483015
:10122C0084000A128A1510200A128A1583010A12E8
:10123C008A11472C2A290330F1009730F000F00B6B
:10124C002529F10B25292A290130F2020030031C33
:10125C00F303F302FF307306031D3629FF307206C9
:10126C00031D39293A2921290800831203139F17DA
:10127C001F138316031708148810081188110812FD
:10128C008812081388130910891009118911091281
:10129C008912831603139F121F129F1783120313B5
:1012AC001F1008006C297108840072080A168A1134
:1012BC0000260A128A150A168A110B260A128A159A
:1012CC000130F1070318F20A0030F20771088400AC
:1012DC0072080A168A1100260A128A150038031D94
:1012EC007829792959290800F400942983120313C9
:1012FC0086173230F2000030F3000A128A152021D2
:10130C000A128A158312031386133230F20000304E
:10131C00F3000A128A1520210A128A150130F402F0
:10132C007408FF3A031D9B299C297C290800013075
:10133C000A168A1181260A128A152730F600F53012
:10134C00F500F50BA729F60BA7293830F40000306F
:10135C000A128A15C9210A128A150630F4000030C7
:10136C000A128A15C9210A128A150C30F4000030B1
:10137C000A128A15C9210A128A150A168A1115260B
:10138C000A128A150800F30073080A168A118D26B2
:10139C000A128A1574080A168A116A250A128A1505
:1013AC0000300A168A1181260A128A150630F200BC
:1013BC003030F100F10BE029F20BE0296400013030
:1013CC000A168A1181260A128A150330F200973008
:1013DC00F100F10BEF29F20BEF29F429080083122D
:1013EC0003139F121F129F111F110D30F100FB30C0
:1013FC00F000F00BFF29F10BFF29042A83120313D1
:10140C009F149F180A2A0B2A072A1E08F000F101C4
:10141C000830F2000310F00DF10DF20B102A7008D9
:10142C00F3007108F400831603131E087307F3000E
:10143C0074080318740AF400740883120313E4018B
:10144C00E4077308E301E30708008312031362083F
:10145C0061040319322A332A632AF1010314F10DB2
:10146C00422A01300310E10DE20DFF3E031D382A24
:10147C000130F0007008F107E21F452A462A372A8E
:10148C0062086002031D4C2A61085F02031C4F2A8C
:10149C00502A562A6108DF026208031CE003E002AE
:1014AC0001300310E20CE10CFF3E031D572A013002
:1014BC00F102031D622A632A462A08009A2A64084C
:1014CC00840065080A168A1100260A128A150A3A3F
:1014DC000319712A722A7F2A6408840065080A1687
:1014EC008A1100260A128A150D3A031D7E2A7F2ABC
:1014FC00852A0A168A11C1250A128A15922A6408AD
:10150C00840065080A168A1100260A128A150A1226
:10151C008A1500200A128A15013083120313E4077E
:10152C000318E50A0030E5078312031364088400EE
:10153C0065080A168A1100260A128A150038031D3E
:10154C00A82AA92A652A08000030F1000030F20010
:10155C0083120313620861040319B52AB62AEE2A12
:10156C00F3010314F30DC52A01300310E10DE20D54
:10157C00FF3E031DBB2A0130F0007008F307E21F89
:10158C00C82AC92ABA2A01300310F10DF20DFF3E08
:10159C00031DCA2A62086002031DD62A61085F0275
:1015AC00031CD92ADA2AE12A6108DF026208031C2B
:1015BC00E003E002711401300310E20CE10CFF3E79
:1015CC00031DE22A0130F302031DED2AEE2AC92A7B
:1015DC007208E001E0077108DF01DF070800031063
:1015EC00003003180130F10083120313E01FFF2AAF
:1015FC00002B082BDF09E009DF0A0319E00AF101CF
:10160C000314F10DE21F0B2B0C2B112BE109E2093A
:10161C00E10A0319E20A620861040319162B172B5D
:10162C00472BF2010314F20D262B01300310E10DB0
:10163C00E20DFF3E031D1C2B0130F0007008F20779
:10164C00E21F292B2A2B1B2B62086002031D302B57
:10165C0061085F02031C332B342B3A2B6108DF0229
:10166C006208031CE003E00201300310E20CE10C01
:10167C00FF3E031D3B2B0130F202031D462B472B73
:10168C002A2B7108031D4B2B502BDF09E009DF0AB5
:10169C000319E00A08000310003003180130F200AF
:1016AC0083120313E21F5B2B5C2B642BE109E20911
:1016BC00E10A0319E20AF2010314F20DE01F672B91
:1016CC00682B712BDF09E009DF0A0319E00A0130EE
:1016DC00F0007008F2060030F3000030F4006208ED
:1016EC00610403197A2B7B2BB32BF1010314F10D3D
:1016FC008A2B01300310E10DE20DFF3E031D802B00
:10170C000130F0007008F107E21F8D2B8E2B7F2B20
:10171C0001300310F30DF40DFF3E031D8F2B6208F7
:10172C006002031D9B2B61085F02031C9E2B9F2BE9
:10173C00A62B6108DF026208031CE003E0027314AD
:10174C0001300310E20CE10CFF3E031DA72B01300E
:10175C00F102031DB22BB32B8E2B7208031DB72B7A
:10176C00BC2BF309F409F30A0319F40A7408E00119
:10177C00E0077308DF01DF0708000A168A11152637
:10178C000A128A15533083120313E4000830E50063
:10179C000A128A1564220A128A15E830F200033004
:1017AC00F3000A128A1520210A128A150A168A11C8
:1017BC0015260A128A15473083120313E4001630DB
:1017CC00E5000A128A1564220A128A158312031381
:1017DC000618F12BF22BEC2B8618F52BF62B0D2C77
:1017EC000A168A1115260A128A1548308312031319
:1017FC00E4008030E5000A128A1564220A128A1568
:10180C000A300A128A157A210A128A150C2C061C27
:10181C00102C112C0D2C01300A128A157A210A1267
:10182C008A150A168A1115260A128A155230831245
:10183C000313E4001630E5000A128A1564220A121A
:10184C008A158312031386182C2C2D2C272C061882
:10185C00302C312C482C0A168A1115260A128A159E
:10186C00483083120313E4008030E5000A128A1515
:10187C0064220A128A150A300A128A157A210A126F
:10188C008A15472C861C4B2C4C2C482C0A168A117A
:10189C0015260A128A15573083120313E400803080
:1018AC00E5000A128A1564220A128A1502300A12FD
:1018BC008A157A210A128A15F430F2000130F300ED
:1018CC000A128A1520210A128A1508000A168A1192
:1018DC0015260A128A151D3083120313E4000830F2
:1018EC00E5000A128A1564220A128A15E830F20001
:1018FC000330F3000A128A1520210A128A150A16DF
:10190C008A1115260A128A15043083120313E40077
:10191C001730E5000A128A1564220A128A158312FE
:10192C00031385189A2C9B2C952C05199E2C9F2CF7
:10193C00B62C0A168A1115260A128A1548308312FB
:10194C000313E4008030E5000A128A1564220A129F
:10195C008A150A300A128A157A210A128A15B52CB0
:10196C00851CB92CBA2CB62C01300A128A157A2196
:10197C000A128A150A168A1115260A128A1520309F
:10198C0083120313E4001730E5000A128A1564224F
:10199C000A128A15831203130519D52CD62CD02CB8
:1019AC008518D92CDA2CF12C0A168A1115260A1254
:1019BC008A15483083120313E4008030E5000A12C4
:1019CC008A1564220A128A150A300A128A157A219B
:1019DC000A128A15F02C051DF42CF52CF12C0A1684
:1019EC008A1115260A128A15573083120313E40044
:1019FC008030E5000A128A1564220A128A15023018
:101A0C000A128A157A210A128A15F430F200013072
:101A1C00F3000A128A1520210A128A1508000A16E8
:101A2C008A1115260A128A15C03083120313E4009A
:101A3C001630E5000A128A1564220A128A15E8305B
:101A4C00F2000330F3000A128A1520210A128A15BB
:101A5C008D2D0A168A1115260A128A15C03083128A
:101A6C000313E4001730E5000A128A1564220A12E7
:101A7C008A150310003003180130F600831203138B
:101A8C000618492D4A2D4B2D5E2D0A30F2000030E0
:101A9C00F3000A128A1520210A128A150130F5006A
:101AAC007508F607C8307602031C5D2D5E2D442D9B
:101ABC000A168A1115260A128A1569308312031325
:101ACC00E4001630E5000A128A1564220A128A15FF
:101ADC000310003003180130F600831203130618AC
:101AEC00782D792D7A2D8D2D0A30F2000030F300EF
:101AFC000A128A1520210A128A150130F500750880
:101B0C00F607C8307602031C8C2D8D2D732D831295
:101B1C0003130618922D932D2F2D061C962D972D01
:101B2C00932D0A168A1115260A128A152F30831244
:101B3C000313E4000830E5000A128A1564220A1225
:101B4C008A150310003003180130F60040300A16D5
:101B5C008A1199260A128A157608303E0A128A15BD
:101B6C0000200A128A158030831203138606F43083
:101B7C00F2000130F3000A128A1520210A128A158C
:101B8C000130F5007508F6070A307602031CCF2DDC
:101B9C00D02DAC2DF430F2000130F3000A128A156E
:101BAC0020210A128A150A168A1115260A128A157C
:101BBC00573083120313E4008030E5000A128A15B3
:101BCC0064220A128A1502300A128A157A210A1224
:101BDC008A15F430F2000130F3000A128A15202124
:101BEC000A128A1508000A168A1115260A128A1575
:101BFC00123083120313E4001730E5000A128A1521
:101C0C0064220A128A15E830F2000330F3000A123B
:101C1C008A1520210A128A15752E0A168A11152684
:101C2C000A128A15663083120313E4001730E5009C
:101C3C000A128A1564220A128A150310003003183E
:101C4C00013083120313E70006182D2E2E2E2F2E93
:101C5C00442E0A30F2000030F3000A128A152021BB
:101C6C000A128A150130F500750883120313E70771
:101C7C00C8306702031C432E442E2A2E0A168A11E2
:101C8C0015260A128A15D03083120313E40017307C
:101C9C00E5000A128A1564220A128A150310003014
:101CAC000318013083120313E70006185E2E5F2E13
:101CBC00602E752E0A30F2000030F3000A128A15DD
:101CCC0020210A128A150130F500750883120313BE
:101CDC00E707C8306702031C742E752E5B2E831227
:101CEC00031306187A2E7B2E132E061C7E2E7F2EA7
:101CFC007B2E0A168A1115260A128A154A3083126F
:101D0C000313E4001730E5000A128A1564220A1244
:101D1C008A156530F1000830F2000A128A15582134
:101D2C000A128A15D430F1000830F2000A128A1512
:101D3C0058210A128A15BC30F1000830F2000A1240
:101D4C008A1558210A128A150A168A11DA260A12DD
:101D5C008A1583120313E60066080A168A110B26ED
:101D6C000A128A158312031366080D3A0319BF2E43
:101D7C00C02EC62E66080A3A031DC52EC62EAA2EE4
:101D8C007A30F1000830F2000A128A1558210A1232
:101D9C008A150A168A1115260A128A1557308312CB
:101DAC000313E4008030E5000A128A1564220A123B
:101DBC008A1502300A128A157A210A128A15F43011
:101DCC00F2000130F3000A128A1520210A128A153A
:101DDC000800031000300318013083120313E800CD
:101DEC000310003003180130E6000A168A1115267C
:101DFC000A128A152E3083120313E4001730E50003
:101E0C000A128A1564220A128A15E830F20003308D
:101E1C00F3000A128A1520210A128A150A128A1551
:101E2C00ED200A128A150A168A1115260A128A152D
:101E3C00A63083120313E4001530E5000A128A154C
:101E4C0064220A128A15E830F2000330F3000A12F9
:101E5C008A1520210A128A150A168A11C1250A121E
:101E6C008A15D62F0A300A168A11B3260A128A1539
:101E7C00003A0319422F432F642F08300A168A1197
:101E8C00B3260A128A15003A03194D2F4E2F642FD0
:101E9C000B300A168A11B3260A128A15003A031956
:101EAC00582F592F642F09300A168A11B3260A129B
:101EBC008A150038031D632F642F782F0A168A1198
:101ECC00C1250A128A15DC3083120313E400153085
:101EDC00E5000A128A1564220A128A15831203136A
:101EEC0086178B2F8312031386130A168A11C125AA
:101EFC000A128A158C3083120313E4001530E500A6
:101F0C000A128A1564220A128A1518300A168A11C6
:101F1C00B3260A128A1583120313E70014300A162B
:101F2C008A11B3260A128A1583120313E8000630AD
:101F3C006702031CA22FA32FAD2FF2010314F20D85
:101F4C001D300A168A11F6260A128A15B82F0310AC
:101F5C00003003180130F2001D300A168A11F626E3
:101F6C000A128A150B30831203136802031CBF2F4D
:101F7C00C02FCB2F6808F5007507F2001E300A162B
:101F8C008A11F6260A128A15D62F03100030031870
:101F9C000130F2001E300A168A11F6260A128A1532
:101FAC00831203138618DB2FDC2F382F861CDF2FB0
:101FBC00E02FDC2F0A168A1115260A128A155730C3
:101FCC0083120313E4008030E5000A128A156422A0
:101FDC000A128A1502300A128A157A210A128A15F7
:101FEC00F430F2000130F3000A128A1520210A1293
:041FFC008A1508003A
:102ACA004134443443343A340034F00070088312F9
:102ADA00031388000800F0007008831203139B0098
:102AEA000800F000700883120313950008006400C0
:102AFA008001840A04060319003404067D2D663415
:102B0A0069346E34693473346834213400342034BF
:102B1A00203420342034203420342034003431341A
:102B2A002B342C3432343D34523475346E34003400
:102B3A0032343A344C34453444342B3442345A34E3
:102B4A000034533457343234203465347834693499
:102B5A007434003431343A3441346C346C342034B3
:102B6A002034203400340230F40000300A128A156E
:102B7A00C9210A168A110800C030F40000300A126E
:102B8A008A15C9210A168A11080034343A344134A4
:102B9A0044344334203420342034003433343A3437
:102BAA004434433420344D346F3474340034423462
:102BBA0075347A3420344F346E342034203400345F
:102BCA0053345734313420346534783469347434A6
:102BDA00003436343A344C3449344D34493454345C
:102BEA002034003439343A344C3469346E34653420
:102BFA0046346F340034FE00FE1F082E83137E18FD
:102C0A008317000808008A0004088200F000831273
:102C1A0003130C1E112E122E0C2E70089900080098
:102C2A00F4010314F40D00300A128A15C9210A1698
:102C3A008A11080037343A344C345334533430341C
:102C4A0035342034003435343A345534413452342E
:102C5A00543420342034003438343A3453344B3426
:102C6A00503453342034203400344C3469346E34B4
:0C2C7A006534203466346F346C34003450
:102C8E005034723465347334733420340A3453340C
:102C9E0057343134003450347234653473347334F1
:102CAE0020340A34533457343234003452346934B5
:102CBE0067346834743420344D346F340A344334FA
:102CCE00573400345334573431340A3474346F3437
:102CDE002034743465347334743400344C346534B5
:102CEE006634743420344D346F3420340A34433413
:102CFE0057340034F0007018852E892E831203137A
:102D0E0009158C2E8312031309110800F000701898
:102D1E00912E952E831203130617982E83120313EA
:102D2E000613080083120313E30063088038F400CF
:102D3E0000300A128A15C9210A168A1108004C346D
:102D4E0065346634743420344D346F3420340A3490
:102D5E004334433457340034F10071080A168A1193
:102D6E000B260A168A110A168A11DA260A168A11F3
:102D7E000800543465347334743469346E346734F3
:102D8E0020340A344C3445344434003454346534DD
:102D9E007334743469346E34673420340A344134F5
:102DAE0044344334003483120313981CDF2EE02E78
:102DBE00E22E181218168C1EE52EE62EE22E1A089A
:102DCE000800F10072080A168A1176250A168A1171
:102DDE0071080A168A1170250A168A110800F10068
:102DEE0071080A168A110B260A168A1172080A161B
:102DFE008A110B260A168A110800533468346F3470
:102E0E007234743420340A344C3449344D344934D9
:102E1E005434313400345434653473347434693476
:102E2E006E34673420340A345534413452345434B9
:102E3E000034533468346F347234743420340A34AA
:102E4E004C3449344D3449345434323400345434CF
:102E5E0065347334743469346E34673420340A3410
:102E6E0053344B34503453340034203420344334F0
:102E7E0061346C340A3420344C345334533430348B
:102E8E0035342034003445346E3474346534723441
:102E9E00203474346F340A346534783469347434BD
:102EAE0000345234693467346834743420344D3409
:102EBE006F3420340A3443344334573400344334AB
:102ECE006F346E346E3465346334743420340A34A3
:102EDE005534433430343034413400345434653452
:102EEE007334743420340A344434433420344D342F
:102EFE006F3474346F3472340034203420345334CD
:102F0E00573431340A3474346F3420347334743497
:102F1E0061347234743400344C3465346634743431
:102F2E0020344D346F3420340A34533454344F34F7
:102F3E0050342134003443346F346E346E3465347F
:102F4E006334743420340A344C34533453343034B0
:102F5E0035340034543465347334743469346E3417
:102F6E00673420340A344C345334533430343534CB
:102F7E00003443346F346E346E34653463347434D9
:102F8E0020340A34423475347A347A3465347234E7
:102F9E00003453345734313420340A3474346F349B
:102FAE002034743465347334743420342D343E3408
:102FBE0000345234693467346834743420344D34F8
:102FCE006F3420340A34533454344F345034213453
:102FDE000034203420344C3469346E34653420345B
:102FEE000A34203446346F346C346C346F34773496
:022FFE0000349D
:02400E00E42CA0
:00000001FF
