:060000000A128A156229B4
:10000E00F40021288312031386173230F2000030D9
:10001E00F3000A128A1548210A128A118312031359
:10002E0086133230F2000030F3000A128A1548218E
:10003E000A128A110130F4027408FF3A031D2828AF
:10004E002928092808000A168A1115260A128A116B
:10005E00E13083120313E4001730E5000A128A150B
:10006E0064220A128A11E830F2000330F3000A12F9
:10007E008A1548210A128A11A2280A168A111526F3
:10008E000A128A11C33083120313E4001730E500FD
:10009E000A128A1564220A128A11031000300318FC
:1000AE000130F6008312031306185E285F286028BD
:1000BE0073280A30F2000030F3000A128A15482124
:1000CE000A128A110130F5007508F607C83076025B
:1000DE00031C7228732859280A168A1115260A122B
:1000EE008A11733083120313E4001630E5000A12EE
:1000FE008A1564220A128A11031000300318013087
:10010E00F6008312031306188D288E288F28A22836
:10011E000A30F2000030F3000A128A1548210A1242
:10012E008A110130F5007508F607C8307602031CF7
:10013E00A128A2288828831203130618A728A82806
:10014E004428061CAB28AC28A8280A168A111526A6
:10015E000A128A11B83083120313E4001530E50039
:10016E000A128A1564220A128A11E830F20003304C
:10017E00F3000A128A1548210A128A110A168A11E8
:10018E00D3250A128A11482941300A168A11BB2634
:10019E000A128A1183120313851DD628D728DE284A
:1001AE0058300A168A118B260A128A11E42820303A
:1001BE000A168A118B260A128A1142300A168A11E1
:1001CE00BB260A128A1183120313051EEF28F0288C
:1001DE00F72858300A168A118B260A128A11FD2822
:1001EE0020300A168A118B260A128A1143300A16FB
:1001FE008A11BB260A128A1183120313851E08293F
:10020E000929102958300A168A118B260A128A11CA
:10021E00162920300A168A118B260A128A114430AA
:10022E000A168A11BB260A128A1183120313091C9D
:10023E0021292229292958300A168A118B260A12B9
:10024E008A112F2920300A168A118B260A128A113A
:10025E0045300A168A11BB260A128A11831203131D
:10026E00891C3A293B29422958300A168A118B26B5
:10027E000A128A11482920300A168A118B260A1270
:10028E008A118312031386184D294E29CB28861CFA
:10029E00512952294E290A168A1115260A128A1137
:1002AE00573083120313E4008030E5000A128A15DA
:1002BE0064220A128A1102300A128A1107200A12C7
:1002CE008A11F430F2000130F3000A128A15482127
:1002DE000A128A110800031000300318013083122D
:1002EE000313EB000310003003180130E600031077
:1002FE00003003180130E8000A168A1115260A127A
:10030E008A11C83083120313E4001630E5000A1276
:10031E008A1564220A128A11E830F2000330F300C3
:10032E000A128A1548210A128A110A168A111526EE
:10033E000A128A11883083120313E4001530E50087
:10034E000A128A1564220A128A110A168A11D325F4
:10035E000A128A114C3083120313E4001630E500A2
:10036E000A128A1564220A128A11831203131F14A9
:10037E00A72A0030EC000030ED0003100030031807
:10038E000130E8000A128A15F6210A128A11831228
:10039E0003136C0883136307EC006D0803186D0AD2
:1003AE006407ED000130F5007508E8070A306802B1
:1003BE00031CE229E329C9296D08E001E0076C0856
:1003CE00DF01DF070A30E1000030E2000A128A1571
:1003DE00AA220A128A118313831203136008ED01F5
:1003EE00ED075F08EC01EC076D08E001E0076C0813
:1003FE00DF01DF07E830E1000330E2000A128A1560
:10040E00AA220A128A118313831203135F08E700CC
:10041E006D08E001E0076C08DF01DF07E830E1005E
:10042E000330E2000A128A152B220A128A11831354
:10043E00831203136008EA01EA075F08E901E9077E
:10044E006A08E001E0076908DF01DF076430E100B8
:10045E000030E2000A128A152B220A128A11831327
:10046E00831203135F08EB006A08E001E0076908D6
:10047E00DF01DF076430E1000030E2000A128A1566
:10048E00AA220A128A118313831203136008EA0147
:10049E00EA075F08E901E9076B08F500F601750840
:1004AE00DF007608E0000A30E1000030E2000A12B8
:1004BE008A15F5220A128A118313831203135F0819
:1004CE00E6006B08F500F6017508DF007608E0001F
:1004DE000A30E1000030E2000A128A1551230A1296
:1004EE008A118313831203135F08EB0004300A167C
:1004FE008A11BB260A128A11831203136708303E33
:10050E000A168A118B260A128A118312031369089E
:10051E00303E0A168A118B260A128A118312031391
:10052E006B08303E0A168A118B260A128A11831224
:10053E0003136608303E0A168A118B260A128A1198
:10054E00831203130618AC2AAD2AC029061CB02A42
:10055E00B12AAD2A1F100A168A1115260A128A11FF
:10056E00573083120313E4008030E5000A128A1517
:10057E0064220A128A1102300A128A1107200A1204
:10058E008A11F430F2000130F3000A128A15482164
:10059E000A128A110800602B0A168A1115260A12F1
:1005AE008A11093083120313E4000830E5000A12A1
:1005BE008A1564220A128A110310003003180130C2
:1005CE00F600831203130618ED2AEE2AEF2A022BE9
:1005DE000A30F2000030F3000A128A1548210A127E
:1005EE008A110130F5007508F607C8307602031C33
:1005FE00012B022BE82A0A168A1115260A128A11D5
:10060E00423083120313E4001730E5000A128A15F4
:10061E0064220A128A110310003003180130F6000A
:10062E008312031306181C2B1D2B1E2B312B0A3085
:10063E00F2000030F3000A128A1548210A128A11BC
:10064E000130F5007508F607C8307602031C302B12
:10065E00312B172B0A168A1115260A128A11A5306C
:10066E0083120313E4001730E5000A128A15642280
:10067E000A128A110310003003180130F60083129B
:10068E00031306184B2B4C2B4D2BD22A0A30F2009B
:10069E000030F3000A128A1548210A128A1101301D
:1006AE00F5007508F607C8307602031C5F2B602B29
:1006BE00462B831203130618652B662BD32A061CB2
:1006CE00692B6A2B662B0A168A1115260A128A11B5
:1006DE00003083120313E4000830E5000A128A1575
:1006EE0064220A128A112F2C0615861106128616FE
:1006FE00051A822B832B942B851E862B872B942BEE
:10070E0009188A2B8B2B942BC830F200C8300A168E
:10071E008A1118270A128A112F2C051E972B982B37
:10072E00A92B851E9B2B9C2BA92B09189F2BA02B2D
:10073E00A92BC830F20078300A168A1118270A122F
:10074E008A112F2C051AAC2BAD2BBE2B851EB02B70
:10075E00B12BBE2B091CB42BB52BBE2B7830F2005F
:10076E00C8300A168A1118270A128A112F2C8519D9
:10077E00C12BC22BD32B051EC52BC62BD32B851AF3
:10078E00C92BCA2BD32BB430F20050300A168A1163
:10079E0018270A128A112F2C851AD62BD72BE82B45
:1007AE00091CDA2BDB2BE82B8918DE2BDF2BE82B31
:1007BE005030F200B4300A168A1118270A128A1124
:1007CE002F2C851DEB2BEC2BF92B051EEF2BF02B75
:1007DE00F92B8C30F20037300A168A1118270A12BC
:1007EE008A112F2C091CFC2BFD2B0A2C891C002C8A
:1007FE00012C0A2C3730F2008C300A168A11182779
:10080E000A128A112F2C851D0D2C0E2C1B2C051A4D
:10081E00112C122C1B2C9630F20000300A168A1165
:10082E0018270A128A112F2C09181E2C1F2C2F2C58
:10083E00891C222C232C2F2C03100030031801307E
:10084E00F20096300A168A1118270A128A112F2CD6
:10085E00831203138618342C352C7B2B061186112C
:10086E0006128612861C3C2C3D2C392C0A168A1137
:10087E0015260A128A11A73083120313E4001530CD
:10088E00E5000A128A1564220A128A110800EE0186
:10089E000314EE0D03100030031801308600031010
:1008AE0000300318013087000310003003180130A8
:1008BE00880003100030031801308900FF308316C2
:1008CE000313850003308600B83087000310003014
:1008DE00031801308800033089000A168A110A278E
:1008EE000A128A110A128A156E200A128A110A1227
:1008FE008A15FD200A128A110A128A15C9210A12B6
:10090E008A110A168A1115260A128A11923083123A
:10091E000313E4000830E5000A128A1564220A1255
:10092E008A1102300A128A1107200A128A11D03057
:10093E00F2000730F3000A128A1548210A128A11B2
:10094E000A128A15C3230A128A110A168A11D3258E
:10095E000A128A11AF3083120313E4001530E5003A
:10096E000A128A1564220A128A110A168A11E525BC
:10097E000A128A11C62DCA30E4001530E5000A129B
:10098E008A1564220A128A11831203138618D02C38
:10099E00D12CE52D861CD42CD52CD12C0A128A15DF
:1009AE0015250A128A110A128A1100260A128A11B4
:1009BE000A128A1172210A128A110A128A15F9254F
:1009CE000A128A110A128A156C240A128A110A1244
:1009DE008A112A200A128A110A128A15EF260A1281
:1009EE008A110A128A11D2220A128A11E52DC130F9
:1009FE00E4001530E5000A128A1564220A128A11E3
:100A0E008312031386180C2D0D2DE52D861C102D2B
:100A1E00112D0D2D0A128A1515250A128A11E52D92
:100A2E00EE30E4001530E5000A128A1564220A122F
:100A3E008A11831203138618252D262DE52D861C6B
:100A4E00292D2A2D262D0A128A1100260A128A1104
:100A5E00E52DDC30E4001530E5000A128A1564221B
:100A6E000A128A118312031386183E2D3F2DE52D8F
:100A7E00861C422D432D3F2D0A128A1172210A1215
:100A8E008A11E52D2830E4001630E5000A128A1589
:100A9E0064220A128A11831203138618572D582DB9
:100AAE00E52D861C5B2D5C2D582D0A128A15F92515
:100ABE000A128A11E52D4330E4001630E5000A12C1
:100ACE008A1564220A128A11831203138618702D56
:100ADE00712DE52D861C742D752D712D0A128A151A
:100AEE006C240A128A11E52D1F30E4001630E50041
:100AFE000A128A1564220A128A11831203138618A7
:100B0E00892D8A2DE52D861C8D2D8E2D8A2D0A126E
:100B1E008A112A200A128A11E52D3130E40016308E
:100B2E00E5000A128A1564220A128A11831203132F
:100B3E008618A22DA32DE52D861CA62DA72DA32D3F
:100B4E000A128A15EF260A128A11E52D3A30E400B0
:100B5E001630E5000A128A1564220A128A118312CF
:100B6E0003138618BB2DBC2DE52D861CBF2DC02D65
:100B7E00BC2D0A128A11D2220A128A11E52D831275
:100B8E0003136E08013A0319C22C033A0319FE2C03
:100B9E00013A0319172D073A0319302D013A03199B
:100BAE00492D033A0319622D013A03197B2D0F3A91
:100BBE000319942D013A0319AD2DE52D831203135C
:100BCE000618EA2DEB2DAC2C0130F7007708EE0756
:100BDE000A306E02031CF42DF52DF82DEE010314D0
:100BEE00EE0D061CFB2DFC2DF82DAC2C0A128A11D5
:100BFE000028632E0A168A1115260A128A11D2307F
:100C0E0083120313E4001730E5000A128A156422DA
:100C1E000A128A11031000300318013083120313D5
:100C2E00E60006181B2E1C2E1D2E322E0A30F20048
:100C3E000030F3000A128A1548210A128A11013077
:100C4E00F500750883120313E607C8306602031C0D
:100C5E00312E322E182E0A168A1115260A128A11D4
:100C6E00733083120313E4001630E5000A128A155E
:100C7E0064220A128A110310003003180130831205
:100C8E000313E60006184C2E4D2E4E2E002E0A3063
:100C9E00F2000030F3000A128A1548210A128A1156
:100CAE000130F500750883120313E607C83066029B
:100CBE00031C622E632E492E831203130618682E10
:100CCE00692E012E061C6C2E6D2E692E0A168A11A7
:100CDE0015260A128A11AF3083120313E400163060
:100CEE00E5000A128A1564220A128A11831203136E
:100CFE00061686122830E70067080A168A11932511
:100D0E000A128A110F30F2000030F3000A128A150F
:100D1E0048210A128A110130F50075088312031357
:100D2E00E7076708FF3A031D9D2E9E2E832E29305E
:100D3E0067020318A32EA42EA52EB92E67080A1635
:100D4E008A1193250A128A110F30F2000030F30037
:100D5E000A128A1548210A128A11013083120313CE
:100D6E00E7029E2E0A168A1115260A128A11D5300E
:100D7E0083120313E4001630E5000A128A1564226A
:100D8E000A128A1183120313061286162830E70000
:100D9E0067080A168A1193250A128A110F30F2007B
:100DAE000030F3000A128A1548210A128A11013006
:100DBE00F500750883120313E7076708FF3A031D52
:100DCE00E92EEA2ECF2E293067020318EF2EF02ED1
:100DDE00F12E052F67080A168A1193250A128A1119
:100DEE000F30F2000030F3000A128A1548210A1261
:100DFE008A11013083120313E702EA2E00300A161D
:100E0E008A1193250A128A110A168A1115260A12B8
:100E1E008A11963083120313E4001730E5000A128C
:100E2E008A1564220A128A1183120313061286127D
:100E3E0001300A128A1107200A128A110A168A1123
:100E4E0015260A128A117F3083120313E40016301E
:100E5E00E5000A128A1564220A128A1183120313FC
:100E6E00061586112830E70067080A168A1199259B
:100E7E000A128A110F30F2000030F3000A128A159E
:100E8E0048210A128A110130F500750883120313E6
:100E9E00E7076708FF3A031D552F562F3B2F2930C2
:100EAE00670203185B2F5C2F5D2F712F67080A16E0
:100EBE008A1199250A128A110F30F2000030F300C0
:100ECE000A128A1548210A128A110130831203135D
:100EDE00E702562F0A168A1115260A128A116C304D
:100EEE0083120313E4001730E5000A128A156422F8
:100EFE000A128A1183120313061186152830E70091
:100F0E0067080A168A1199250A128A110F30F20003
:100F1E000030F3000A128A1548210A128A11013094
:100F2E00F500750883120313E7076708FF3A031DE0
:100F3E00A12FA22F872F293067020318A72FA82FC2
:100F4E00A92FBD2F67080A168A1199250A128A1130
:100F5E000F30F2000030F3000A128A1548210A12EF
:100F6E008A11013083120313E702A22F00300A16F2
:100F7E008A1199250A128A110A168A1115260A1241
:100F8E008A11F03083120313E4001730E5000A12C1
:100F9E008A1564220A128A1183120313061186110E
:100FAE00E830F2000330F3000A128A1548210A12C3
:100FBE008A110A168A1115260A128A1157308312BF
:100FCE000313E4008030E5000A128A1564220A1227
:100FDE008A1102300A128A1107200A128A11F4307D
:100FEE00F2000130F3000A128A1548210A128A1102
:100FFE0008004C3469346E346534203466346F34F2
:10100E006C340034203420344C3469346E346534FE
:10101E0020340A34203446346F346C346C346F34DC
:10102E007734003453345734313420340A34743422
:10103E006F342034743465347334743420342D3466
:10104E003E34003443346F346E346E34653463345E
:10105E00743420340A34423475347A347A34653434
:10106E00723400347E088A007F08820039200A120A
:10107E008A158000840A04087D0603190034FF0ACD
:10108E000319FE0A3D2854346534733474346934BC
:10109E006E34673420340A344C3449344D34493478
:1010AE00543420347334773400344C34453444345F
:1010BE0031342B34423475347A340A3420342034AB
:1010CE00743469346D3465342F34733400348316BC
:1010DE0003131F13831203139F171F138316031378
:1010EE009F151F159F141F109F17831203131F1098
:1010FE000800543465347334743469346E34673490
:10110E0020340A3453347734693474346334683495
:10111E006534733400342034433479347434723487
:10112E006F346E3420340A34203420345434653411
:10113E00633468342034203400340D340A340A34D5
:10114E00543465347334743469346E3467342034F3
:10115E0055344134523454342E342E342E340D340E
:10116E000A3400340D340A340A345434653473347A
:10117E007434203443346F346D3470346C346534CD
:10118E007434653464342E340D340A3400344F34E0
:10119E00743468346534723420340A34533457341A
:1011AE00733420344C346F3477340034503461341B
:1011BE0073347334653464342134003450347234EF
:1011CE00653473347334203465346E34743465345A
:1011DE007234203474346F34203465347834693486
:1011EE0074342E340D340A340A34003465308316C8
:1011FE000313920083120313921012140310003083
:10120E000318013095001215971517159710171022
:10121E009D121D129D151D159D101D100800831287
:10122E00031307144130F100EE30F000F00B1D29CE
:10123E00F10B1D2964008312031307104130F100D6
:10124E00EE30F000F00B2929F10B2929640008007B
:10125E0050347234653473347334203461346E34E4
:10126E00793420346B3465347934203474346F34EB
:10127E00203474346534733474342E340D340A349B
:10128E00003451290730F1007D30F000F00B4D296C
:10129E00F10B4D290130F2020030031CF303F3026F
:1012AE00FF307306031D5D29FF307206031D602992
:1012BE0061294929080083132030840048300A161A
:1012CE008A119F250A128A155F30FD000830FE0034
:1012DE00CE30FF00483084000A128A153D200A12D3
:1012EE008A1583010A128A114E2C902971088400E6
:1012FE0072080A168A1100260A128A150A168A110F
:10130E000B260A128A150130F1070318F20A003073
:10131E00F2077108840072080A168A1100260A1252
:10132E008A150038031D9C299D297D290800F3008C
:10133E0073080A168A11A3260A128A1574080A1649
:10134E008A118D250A128A1500300A168A119726DF
:10135E000A128A150D30F200FB30F100F10BB5299F
:10136E00F20BB529BA2901300A168A1197260A12EC
:10137E008A150730F2007D30F100F10BC429F20B13
:10138E00C429080001300A168A1197260A128A15F6
:10139E006230F6006530F500F50BD329F60BD32934
:1013AE00D8293830F40000300A128A159E210A120C
:1013BE008A150630F40000300A128A159E210A1290
:1013CE008A150C30F40000300A128A159E210A127A
:1013DE008A150A168A1115260A128A150800831212
:1013EE0003139F121F129F112130F1007630F0006F
:1013FE00F00BFF29F10BFF296400831203131F1555
:10140E001F190A2A0B2A072A1E08F000F1010830BC
:10141E00F2000310F00DF10DF20B102A7008F3001C
:10142E007108F400831603131E087307F300740883
:10143E000318740AF400740883120313E401E4071A
:10144E007308E301E30708008312031362086104C3
:10145E000319322A332A632AF1010314F10D422AA9
:10146E0001300310E10DE20DFF3E031D382A01305D
:10147E00F0007008F107E21F452A462A372A620853
:10148E006002031D4C2A61085F02031C4F2A502A7A
:10149E00562A6108DF026208031CE003E0020130F5
:1014AE000310E20CE10CFF3E031D572A0130F1023E
:1014BE00031D622A632A462A08009A2A64088400B9
:1014CE0065080A168A1100260A128A150A3A0319A5
:1014DE00712A722A7F2A6408840065080A168A1106
:1014EE0000260A128A150D3A031D7E2A7F2A852AA6
:1014FE000A168A11D3250A128A15922A64088400C4
:10150E0065080A168A1100260A128A150A168A1109
:10151E008B260A128A15013083120313E40703186F
:10152E00E50A0030E507831203136408840065089A
:10153E000A168A1100260A128A150038031DA82AD7
:10154E00A92A652A08000030F1000030F20083124B
:10155E000313620861040319B52AB62AEE2AF301B1
:10156E000314F30DC52A01300310E10DE20DFF3E09
:10157E00031DBB2A0130F0007008F307E21FC82AD2
:10158E00C92ABA2A01300310F10DF20DFF3E031DD8
:10159E00CA2A62086002031DD62A61085F02031C74
:1015AE00D92ADA2AE12A6108DF026208031CE00365
:1015BE00E002711401300310E20CE10CFF3E031D3A
:1015CE00E22A0130F302031DED2AEE2AC92A72081F
:1015DE00E001E0077108DF01DF07080003100030AB
:1015EE0003180130F10083120313E01FFF2A002BB2
:1015FE00082BDF09E009DF0A0319E00AF1010314E1
:10160E00F10DE21F0B2B0C2B112BE109E209E10A64
:10161E000319E20A620861040319162B172B472BD4
:10162E00F2010314F20D262B01300310E10DE20D31
:10163E00FF3E031D1C2B0130F0007008F207E21F65
:10164E00292B2A2B1B2B62086002031D302B6108ED
:10165E005F02031C332B342B3A2B6108DF02620826
:10166E00031CE003E00201300310E20CE10CFF3E2C
:10167E00031D3B2B0130F202031D462B472B2A2B59
:10168E007108031D4B2B502BDF09E009DF0A0319EC
:10169E00E00A08000310003003180130F200831234
:1016AE000313E21F5B2B5C2B642BE109E209E10AB9
:1016BE000319E20AF2010314F20DE01F672B682BE7
:1016CE00712BDF09E009DF0A0319E00A0130F0008F
:1016DE007008F2060030F3000030F4006208610476
:1016EE0003197A2B7B2BB32BF1010314F10D8A2BEB
:1016FE0001300310E10DE20DFF3E031D802B013082
:10170E00F0007008F107E21F8D2B8E2B7F2B01301E
:10171E000310F30DF40DFF3E031D8F2B62086002C4
:10172E00031D9B2B61085F02031C9E2B9F2BA62B78
:10173E006108DF026208031CE003E002731401304B
:10174E000310E20CE10CFF3E031DA72B0130F1024A
:10175E00031DB22BB32B8E2B7208031DB72BBC2B84
:10176E00F309F409F30A0319F40A7408E001E00717
:10177E007308DF01DF0708000A168A1115260A1200
:10178E008A15803083120313E4000830E5000A1234
:10179E008A1564220A128A15E830F2000330F3002B
:1017AE000A128A1548210A128A150A168A11152656
:1017BE000A128A15683083120313E4001630E5000E
:1017CE000A128A1564220A128A1583120313061846
:1017DE00F12BF22BEC2B8618F52BF62B0D2C0A1673
:1017EE008A1115260A128A15483083120313E40053
:1017FE008030E5000A128A1564220A128A150A3010
:10180E000A128A1107200A128A150C2C061C102C9B
:10181E00112C0D2C01300A128A1107200A128A157A
:10182E000A168A1115260A128A155D3083120313C1
:10183E00E4001630E5000A128A1564220A128A158F
:10184E008312031386182C2C2D2C272C0618302CC3
:10185E00312C482C0A168A1115260A128A15483080
:10186E0083120313E4008030E5000A128A15642205
:10187E000A128A150A300A128A1107200A128A15CC
:10188E00472C861C4B2C4C2C482C0A168A111526DC
:10189E000A128A15573083120313E4008030E500D4
:1018AE000A128A1564220A128A1502300A128A1145
:1018BE0007200A128A15F430F2000130F3000A12E2
:1018CE008A1548210A128A1508000A168A11152649
:1018DE000A128A154A3083120313E4000830E50019
:1018EE000A128A1564220A128A15E830F2000330B1
:1018FE00F3000A128A1548210A128A150A168A114D
:10190E0015260A128A15883083120313E400173045
:10191E00E5000A128A1564220A128A15831203132D
:10192E0085189A2C9B2C952C05199E2C9F2CB62C29
:10193E000A168A1115260A128A15483083120313C5
:10194E00E4008030E5000A128A1564220A128A1514
:10195E000A300A128A1107200A128A15B52C851C24
:10196E00B92CBA2CB62C01300A128A1107200A1291
:10197E008A150A168A1115260A128A1550308312F4
:10198E000313E4001730E5000A128A1564220A12C6
:10199E008A15831203130519D52CD62CD02C851835
:1019AE00D92CDA2CF12C0A168A1115260A128A1550
:1019BE00483083120313E4008030E5000A128A15C2
:1019CE0064220A128A150A300A128A1107200A1294
:1019DE008A15F02C051DF42CF52CF12C0A168A1103
:1019EE0015260A128A15573083120313E40080302D
:1019FE00E5000A128A1564220A128A1502300A12AA
:101A0E008A1107200A128A15F430F2000130F30011
:101A1E000A128A1548210A128A1508000A168A1116
:101A2E0015260A128A15EF3083120313E4001630BE
:101A3E00E5000A128A1564220A128A15E830F200AD
:101A4E000330F3000A128A1548210A128A158D2DC9
:101A5E000A168A1115260A128A15293083120313C3
:101A6E00E4000830E5000A128A1564220A128A156B
:101A7E000310003003180130F6008312031306180A
:101A8E00492D4A2D4B2D5E2D0A30F2000030F30009
:101A9E000A128A1548210A128A150130F5007508B6
:101AAE00F607C8307602031C5D2D5E2D442D0A16F6
:101ABE008A1115260A128A15733083120313E40055
:101ACE001630E5000A128A1564220A128A150310CE
:101ADE00003003180130F600831203130618782D18
:101AEE00792D7A2D8D2D0A30F2000030F3000A1276
:101AFE008A1548210A128A150130F5007508F60775
:101B0E00C8307602031C8C2D8D2D732D831203137A
:101B1E000618922D932D2F2D061C962D972D932D55
:101B2E000A168A1115260A128A155C3083120313BF
:101B3E00E4000830E5000A128A1564220A128A159A
:101B4E000310003003180130F60040300A168A11D7
:101B5E00BB260A128A157608303E0A168A118B2683
:101B6E000A128A158030831203138606F430F200AF
:101B7E000130F3000A128A1548210A128A15013023
:101B8E00F5007508F6070A307602031CCF2DD02D0E
:101B9E00AC2DF430F2000130F3000A128A15482100
:101BAE000A128A150A168A1115260A128A15573034
:101BBE0083120313E4008030E5000A128A156422B2
:101BCE000A128A1502300A128A1107200A128A1581
:101BDE00F430F2000130F3000A128A1548210A127D
:101BEE008A1508000A168A1115260A128A157A30E5
:101BFE0083120313E4001730E5000A128A156422DB
:101C0E000A128A15E830F2000330F3000A128A1520
:101C1E0048210A128A15752E0A168A1115260A12DD
:101C2E008A15B43083120313E4001730E5000A124C
:101C3E008A1564220A128A15031000300318013027
:101C4E0083120313E70006182D2E2E2E2F2E442E50
:101C5E000A30F2000030F3000A128A1548210A12E7
:101C6E008A150130F500750883120313E707C83093
:101C7E006702031C432E442E2A2E0A168A1115269D
:101C8E000A128A15193083120313E4000830E50096
:101C9E000A128A1564220A128A15031000300318DC
:101CAE00013083120313E70006185E2E5F2E602E9E
:101CBE00752E0A30F2000030F3000A128A15482100
:101CCE000A128A150130F500750883120313E7070F
:101CDE00C8306702031C742E752E5B2E83120313FD
:101CEE0006187A2E7B2E132E061C7E2E7F2E7B2E12
:101CFE000A168A1115260A128A155E3083120313EC
:101D0E00E4001730E5000A128A1564220A128A15B9
:101D1E00A430F1000830F2000A128A157C210A1252
:101D2E008A152F30F1000930F2000A128A157C2133
:101D3E000A128A15E530F1000830F2000A128A15EF
:101D4E007C210A128A150A168A11FC260A128A1595
:101D5E0083120313E60066080A168A110B260A126E
:101D6E008A158312031366080D3A0319BF2EC02E6F
:101D7E00C62E66080A3A031DC52EC62EAA2EB930E7
:101D8E00F1000830F2000A128A157C210A128A1517
:101D9E000A168A1115260A128A1557308312031352
:101DAE00E4008030E5000A128A1564220A128A15B0
:101DBE0002300A128A1107200A128A15F430F20034
:101DCE000130F3000A128A1548210A128A150800FA
:101DDE00031000300318013083120313E8000310C0
:101DEE00003003180130E6000A168A1115260A1271
:101DFE008A15343083120313E4001730E5000A12FB
:101E0E008A1564220A128A15E830F2000330F300B4
:101E1E000A128A1548210A128A150A128A151621E3
:101E2E000A128A150A168A1115260A128A15B83050
:101E3E0083120313E4001530E5000A128A1564229A
:101E4E000A128A15E830F2000330F3000A128A15DE
:101E5E0048210A128A150A168A11D3250A128A15E2
:101E6E00D62F0A300A168A11E2260A128A15003A6D
:101E7E000319422F432F642F08300A168A11E226C7
:101E8E000A128A15003A03194D2F4E2F642F0B306C
:101E9E000A168A11E2260A128A15003A0319582FD9
:101EAE00592F642F09300A168A11E2260A128A1552
:101EBE000038031D632F642F782F0A168A11D3253D
:101ECE000A128A15F73083120313E4001530E50069
:101EDE000A128A1564220A128A15831203138617B0
:101EEE008B2F8312031386130A168A11D3250A1217
:101EFE008A15553083120313E4001630E5000A12DA
:101F0E008A1564220A128A1518300A168A11E226D8
:101F1E000A128A1583120313E70014300A168A1167
:101F2E00E2260A128A1583120313E80006306702AE
:101F3E00031CA22FA32FAD2FF2010314F20D1D309F
:101F4E000A168A1126270A128A15B82F0310003096
:101F5E0003180130F2001D300A168A1126270A12C4
:101F6E008A150B30831203136802031CBF2FC02F78
:101F7E00CB2F6808F5007507F2001E300A168A117D
:101F8E0026270A128A15D62F0310003003180130A7
:101F9E00F2001E300A168A1126270A128A1583129B
:101FAE0003138618DB2FDC2F382F861CDF2FE02F34
:101FBE00DC2F0A168A1115260A128A15573083123B
:101FCE000313E4008030E5000A128A1564220A1217
:101FDE008A1502300A128A1107200A128A15F43065
:101FEE00F2000130F3000A128A1548210A128A15EE
:021FFE000800D9
:102B10004134443443343A340034F00070088312B2
:102B2000031388000800F0007008831203139B0051
:102B30000800F00070088312031395000800640079
:102B40008001840A0406031900340406A02D6634AB
:102B500069346E3469347334683421340034313468
:102B60002B342C3432343D34523475346E340034CA
:102B700053345734323420346534783469347434FF
:102B8000003432343A344C34453444342B344234F7
:102B90005A34003431343A3441346C346C34203497
:102BA000203420340034C030F40000300A128A157A
:102BB0009E210A168A11080034343A3441344434D0
:102BC000433420342034203400340230F400003008
:102BD0000A128A159E210A168A11080033343A34E3
:102BE0004434433420344D346F347434003442342C
:102BF00075347A3420344F346E3420342034003429
:102C0000FE00FE1F082E83137E188317000808009D
:102C10008A0004088200F000831203130C1E112E98
:102C2000122E0C2E700899000800F4010314F40D04
:102C300000300A128A159E210A168A1108003734BC
:102C40003A344C3453345334303435342034003433
:102C500035343A34553441345234543420342034E9
:102C6000003438343A3453344B34503453342034F1
:102C70002034003439343A344C3469346E34653499
:102C800046346F34003436343A344C3449344D349D
:102C900049345434203400345334573431342034DC
:102CA000653478346934743400342034203420346A
:102CB00020342034203420340034503472346534CD
:102CC0007334733420340A34533457343234003478
:102CD0005034723465347334733420340A345334CA
:102CE0005734313400345334573431340A34743463
:102CF0006F34203474346534733474340034523493
:102D0000693467346834743420344D346F340A3491
:102D100043345734003483120313E3006308F40090
:102D200001300A128A159E210A168A110800F00045
:102D300070189B2E9F2E831203130915A22E831247
:102D4000031309110800F0007018A72EAB2E831290
:102D500003130617AE2E83120313061308004C3418
:102D600065346634743420344D346F3420340A347E
:102D700043345734003483120313E300630880386C
:102D8000F40000300A128A159E210A168A110800E2
:102D9000543465347334743469346E346734203495
:102DA0000A3441344434433400344C34653466349A
:102DB000743420344D346F3420340A344334433473
:102DC00057340034F10071080A168A110B260A16CE
:102DD0008A110A168A11FC260A168A110800543430
:102DE00065347334743469346E34673420340A348F
:102DF0004C3445344434003483120313981C012F9F
:102E0000022F042F181218168C1E072F082F042FBC
:102E10001A080800831603131815813099008312CD
:102E20000313981718168316031398161812080020
:102E3000F10072080A168A1199250A168A1171087A
:102E40000A168A1193250A168A110800F1007108E2
:102E50000A168A110B260A168A1172080A168A1196
:102E60000B260A168A1108005434653473347434FE
:102E700069346E34673420340A3453344B3450345C
:102E80005334003420342034433461346C340A34F5
:102E900020344C34533453343034353420340034FB
:102EA000533468346F347234743420340A344C34FC
:102EB00049344D34493454343234003445346E345A
:102EC000743465347234203474346F340A346534A5
:102ED0007834693474340034523469346734683473
:102EE000743420344D346F3420340A344334433442
:102EF00057340034543465347334743469346E3464
:102F0000673420340A345534413452345434003454
:102F1000533468346F347234743420340A344C348B
:102F200049344D3449345434313400344C346534EC
:102F30006634743420344D346F3420340A345334BE
:102F400054344F345034213400342034203453343A
:102F5000573431340A3474346F3420347334743455
:102F6000613472347434003443346F346E346E34EC
:102F700065346334743420340A3455344334303483
:102F800030344134003443346F346E346E3465343D
:102F90006334743420340A344C345334533430346E
:102FA00035340034543465347334743420340A3482
:102FB0004434433420344D346F3474346F347234B9
:102FC0000034543465347334743469346E34673483
:102FD00020340A344C3453345334303435340034D0
:102FE0005234693467346834743420344D346F3467
:102FF00020340A34533454344F34503421340034A0
:02400E00323F3F
:00000001FF
